{
  "contractName": "ERC721Enumerable",
  "abi": [
    {
      "anonymous": false,
      "inputs": [
        {
          "indexed": true,
          "internalType": "address",
          "name": "from",
          "type": "address"
        },
        {
          "indexed": true,
          "internalType": "address",
          "name": "to",
          "type": "address"
        },
        {
          "indexed": true,
          "internalType": "uint256",
          "name": "tokenId",
          "type": "uint256"
        }
      ],
      "name": "Transfer",
      "type": "event"
    },
    {
      "inputs": [
        {
          "internalType": "address",
          "name": "_owner",
          "type": "address"
        }
      ],
      "name": "balanceOf",
      "outputs": [
        {
          "internalType": "uint256",
          "name": "",
          "type": "uint256"
        }
      ],
      "stateMutability": "view",
      "type": "function"
    },
    {
      "inputs": [
        {
          "internalType": "uint256",
          "name": "_tokenId",
          "type": "uint256"
        }
      ],
      "name": "ownerOf",
      "outputs": [
        {
          "internalType": "address",
          "name": "",
          "type": "address"
        }
      ],
      "stateMutability": "view",
      "type": "function"
    },
    {
      "inputs": [
        {
          "internalType": "address",
          "name": "_from",
          "type": "address"
        },
        {
          "internalType": "address",
          "name": "_to",
          "type": "address"
        },
        {
          "internalType": "uint256",
          "name": "_tokenId",
          "type": "uint256"
        }
      ],
      "name": "transferFrom",
      "outputs": [],
      "stateMutability": "nonpayable",
      "type": "function"
    },
    {
      "inputs": [],
      "name": "totalSupply",
      "outputs": [
        {
          "internalType": "uint256",
          "name": "",
          "type": "uint256"
        }
      ],
      "stateMutability": "view",
      "type": "function"
    },
    {
      "inputs": [
        {
          "internalType": "uint256",
          "name": "_index",
          "type": "uint256"
        }
      ],
      "name": "tokenByIndex",
      "outputs": [
        {
          "internalType": "uint256",
          "name": "",
          "type": "uint256"
        }
      ],
      "stateMutability": "view",
      "type": "function"
    },
    {
      "inputs": [
        {
          "internalType": "address",
          "name": "_owner",
          "type": "address"
        },
        {
          "internalType": "uint256",
          "name": "_index",
          "type": "uint256"
        }
      ],
      "name": "tokenOfOwnerByIndex",
      "outputs": [
        {
          "internalType": "uint256",
          "name": "",
          "type": "uint256"
        }
      ],
      "stateMutability": "view",
      "type": "function"
    }
  ],
  "bytecode": "0x608060405234801561001057600080fd5b50610c9f806100206000396000f3fe608060405234801561001057600080fd5b50600436106100625760003560e01c806318160ddd1461006757806323b872dd146100855780632f745c59146100a15780634f6ccce7146100d15780636352211e1461010157806370a0823114610131575b600080fd5b61006f610161565b60405161007c91906106db565b60405180910390f35b61009f600480360381019061009a9190610785565b61016e565b005b6100bb60048036038101906100b691906107d8565b61017e565b6040516100c891906106db565b60405180910390f35b6100eb60048036038101906100e69190610818565b61022e565b6040516100f891906106db565b60405180910390f35b61011b60048036038101906101169190610818565b61029f565b6040516101289190610854565b60405180910390f35b61014b6004803603810190610146919061086f565b610350565b60405161015891906106db565b60405180910390f35b6000600380549050905090565b61017983838361040e565b505050565b600061018983610350565b82106101ca576040517f08c379a00000000000000000000000000000000000000000000000000000000081526004016101c1906108f9565b60405180910390fd5b600560008473ffffffffffffffffffffffffffffffffffffffff1673ffffffffffffffffffffffffffffffffffffffff168152602001908152602001600020828154811061021b5761021a610919565b5b9060005260206000200154905092915050565b6000610238610161565b8210610279576040517f08c379a000000000000000000000000000000000000000000000000000000000815260040161027090610994565b60405180910390fd5b6003828154811061028d5761028c610919565b5b90600052602060002001549050919050565b60008060008084815260200190815260200160002060009054906101000a900473ffffffffffffffffffffffffffffffffffffffff169050600073ffffffffffffffffffffffffffffffffffffffff168173ffffffffffffffffffffffffffffffffffffffff161415610347576040517f08c379a000000000000000000000000000000000000000000000000000000000815260040161033e90610a00565b60405180910390fd5b80915050919050565b60008073ffffffffffffffffffffffffffffffffffffffff168273ffffffffffffffffffffffffffffffffffffffff1614156103c1576040517f08c379a00000000000000000000000000000000000000000000000000000000081526004016103b890610a92565b60405180910390fd5b6000600160008473ffffffffffffffffffffffffffffffffffffffff1673ffffffffffffffffffffffffffffffffffffffff16815260200190815260200160002054905080915050919050565b600073ffffffffffffffffffffffffffffffffffffffff168273ffffffffffffffffffffffffffffffffffffffff16141561047e576040517f08c379a000000000000000000000000000000000000000000000000000000000815260040161047590610afe565b60405180910390fd5b8273ffffffffffffffffffffffffffffffffffffffff1661049e8261029f565b73ffffffffffffffffffffffffffffffffffffffff16146104f4576040517f08c379a00000000000000000000000000000000000000000000000000000000081526004016104eb90610b90565b60405180910390fd5b60018060008573ffffffffffffffffffffffffffffffffffffffff1673ffffffffffffffffffffffffffffffffffffffff1681526020019081526020016000205461053f9190610bdf565b600160008573ffffffffffffffffffffffffffffffffffffffff1673ffffffffffffffffffffffffffffffffffffffff1681526020019081526020016000208190555060018060008473ffffffffffffffffffffffffffffffffffffffff1673ffffffffffffffffffffffffffffffffffffffff168152602001908152602001600020546105cd9190610c13565b600160008473ffffffffffffffffffffffffffffffffffffffff1673ffffffffffffffffffffffffffffffffffffffff16815260200190815260200160002081905550816002600083815260200190815260200160002060006101000a81548173ffffffffffffffffffffffffffffffffffffffff021916908373ffffffffffffffffffffffffffffffffffffffff160217905550808273ffffffffffffffffffffffffffffffffffffffff168473ffffffffffffffffffffffffffffffffffffffff167fddf252ad1be2c89b69c2b068fc378daa952ba7f163c4a11628f55a4df523b3ef60405160405180910390a4505050565b6000819050919050565b6106d5816106c2565b82525050565b60006020820190506106f060008301846106cc565b92915050565b600080fd5b600073ffffffffffffffffffffffffffffffffffffffff82169050919050565b6000610726826106fb565b9050919050565b6107368161071b565b811461074157600080fd5b50565b6000813590506107538161072d565b92915050565b610762816106c2565b811461076d57600080fd5b50565b60008135905061077f81610759565b92915050565b60008060006060848603121561079e5761079d6106f6565b5b60006107ac86828701610744565b93505060206107bd86828701610744565b92505060406107ce86828701610770565b9150509250925092565b600080604083850312156107ef576107ee6106f6565b5b60006107fd85828601610744565b925050602061080e85828601610770565b9150509250929050565b60006020828403121561082e5761082d6106f6565b5b600061083c84828501610770565b91505092915050565b61084e8161071b565b82525050565b60006020820190506108696000830184610845565b92915050565b600060208284031215610885576108846106f6565b5b600061089384828501610744565b91505092915050565b600082825260208201905092915050565b7f6f776e657220696e646578206973206f7574206f6620626f756e640000000000600082015250565b60006108e3601b8361089c565b91506108ee826108ad565b602082019050919050565b60006020820190508181036000830152610912816108d6565b9050919050565b7f4e487b7100000000000000000000000000000000000000000000000000000000600052603260045260246000fd5b7f676c6f626c6520696e646578206973206f7574206f6620626f756e6400000000600082015250565b600061097e601c8361089c565b915061098982610948565b602082019050919050565b600060208201905081810360008301526109ad81610971565b9050919050565b7f4572726f72202d20746f6b656e20646f6573206e6f7420657869737421000000600082015250565b60006109ea601d8361089c565b91506109f5826109b4565b602082019050919050565b60006020820190508181036000830152610a19816109dd565b9050919050565b7f4572726f72202d206164647265737320697320696e76616c6964206f72207a6560008201527f726f000000000000000000000000000000000000000000000000000000000000602082015250565b6000610a7c60228361089c565b9150610a8782610a20565b604082019050919050565b60006020820190508181036000830152610aab81610a6f565b9050919050565b7f4572726f72202d20616464726573732063616e206e6f74206265207a65726f00600082015250565b6000610ae8601f8361089c565b9150610af382610ab2565b602082019050919050565b60006020820190508181036000830152610b1781610adb565b9050919050565b7f4572726f72202d20796f7520646f206e6f74206f776e65642074686520746f6b60008201527f656e000000000000000000000000000000000000000000000000000000000000602082015250565b6000610b7a60228361089c565b9150610b8582610b1e565b604082019050919050565b60006020820190508181036000830152610ba981610b6d565b9050919050565b7f4e487b7100000000000000000000000000000000000000000000000000000000600052601160045260246000fd5b6000610bea826106c2565b9150610bf5836106c2565b925082821015610c0857610c07610bb0565b5b828203905092915050565b6000610c1e826106c2565b9150610c29836106c2565b9250827fffffffffffffffffffffffffffffffffffffffffffffffffffffffffffffffff03821115610c5e57610c5d610bb0565b5b82820190509291505056fea26469706673582212209358108df9447a4b4dd7426e5af92e743414e134600197ec1cd13d48da3786f664736f6c634300080b0033",
  "immutableReferences": {},
  "source": "// SPDX-License-Identifier: MIT\r\npragma solidity ^0.8.0;\r\n\r\nimport './ERC721.sol';\r\n\r\ncontract ERC721Enumerable is ERC721 {\r\n\r\n\r\n    //keep track of all minted tokens\r\n    uint256[] private _allTokens;\r\n\r\n    // map token id to token indexes\r\n    mapping(uint256 => uint256) private _allTokensIndex;\r\n    //map owner adress to the list of token ids i.e. token collection\r\n    mapping(address => uint256[]) private _ownedTokens;\r\n    //map token id to the index of the owned token list\r\n    mapping(uint256 => uint256) private _ownedTokensIndex;\r\n\r\n    //total supply of minted tokens\r\n    function totalSupply() public view returns (uint256) {\r\n        return _allTokens.length;\r\n    }\r\n\r\n    \r\n    //get token by index\r\n    function tokenByIndex(uint256 _index) external view returns (uint256) {\r\n        require(_index < totalSupply(), 'globle index is out of bound');\r\n        return _allTokens[_index];\r\n    }\r\n\r\n\r\n    //get token by owner address and index\r\n    function tokenOfOwnerByIndex(address _owner, uint256 _index) external view returns (uint256){\r\n        require(_index < balanceOf(_owner), 'owner index is out of bound');\r\n        return _ownedTokens[_owner][_index];\r\n    }\r\n\r\n\r\n   //mint NFTs through function overriding\r\n   function _mint(address to, uint256 tokenId) internal override(ERC721) {\r\n       super._mint(to, tokenId);\r\n       _addTokensToAllTokensEnumeration(tokenId);\r\n       _addTokensToOwnersEnumeration(to, tokenId);\r\n   }\r\n\r\n   //add ownedTokens to the owner addresses\r\n   function _addTokensToOwnersEnumeration(address to, uint256 tokenId) private {\r\n       //asign the tokenId to the address index \r\n       _ownedTokensIndex[tokenId] = _ownedTokens[to].length;\r\n       //push tokenId into the array with the address\r\n       _ownedTokens[to].push(tokenId);\r\n   }\r\n\r\n   // add every minted token to the Total Supply \r\n   function _addTokensToAllTokensEnumeration(uint256 tokenId) private {\r\n        _allTokensIndex[tokenId] = _allTokens.length;\r\n       _allTokens.push(tokenId);\r\n   }\r\n\r\n}",
  "sourcePath": "C:\\Users\\Haier\\Documents\\Blockchain\\nft-marketplace-starter-kit\\src\\contracts\\ERC721Enumerable.sol",
  "compiler": {
    "name": "solc",
    "version": "0.8.11+commit.d7f03943.Emscripten.clang"
  },
  "schemaVersion": "3.4.4",
  "updatedAt": "2022-02-06T15:41:02.331Z",
  "devdoc": {
    "kind": "dev",
    "methods": {
      "balanceOf(address)": {
        "details": "NFTs assigned to the zero address are considered invalid, and this  function throws for queries about the zero address.",
        "params": {
          "_owner": "An address for whom to query the balance"
        },
        "returns": {
          "_0": "The number of NFTs owned by `_owner`, possibly zero"
        }
      },
      "ownerOf(uint256)": {
        "details": "NFTs assigned to zero address are considered invalid, and queries  about them do throw.",
        "params": {
          "_tokenId": "The identifier for an NFT"
        },
        "returns": {
          "_0": "The address of the owner of the NFT"
        }
      }
    },
    "version": 1
  },
  "userdoc": {
    "kind": "user",
    "methods": {
      "balanceOf(address)": {
        "notice": "Count all NFTs assigned to an owner"
      },
      "ownerOf(uint256)": {
        "notice": "Find the owner of an NFT"
      }
    },
    "version": 1
  }
}