{
  "contractName": "ERC721Connector",
  "abi": [
    {
      "inputs": [
        {
          "internalType": "string",
          "name": "name",
          "type": "string"
        },
        {
          "internalType": "string",
          "name": "symbol",
          "type": "string"
        }
      ],
      "stateMutability": "nonpayable",
      "type": "constructor"
    },
    {
      "anonymous": false,
      "inputs": [
        {
          "indexed": true,
          "internalType": "address",
          "name": "from",
          "type": "address"
        },
        {
          "indexed": true,
          "internalType": "address",
          "name": "to",
          "type": "address"
        },
        {
          "indexed": true,
          "internalType": "uint256",
          "name": "tokenId",
          "type": "uint256"
        }
      ],
      "name": "Transfer",
      "type": "event"
    },
    {
      "inputs": [
        {
          "internalType": "address",
          "name": "_owner",
          "type": "address"
        }
      ],
      "name": "balanceOf",
      "outputs": [
        {
          "internalType": "uint256",
          "name": "",
          "type": "uint256"
        }
      ],
      "stateMutability": "view",
      "type": "function"
    },
    {
      "inputs": [],
      "name": "name",
      "outputs": [
        {
          "internalType": "string",
          "name": "",
          "type": "string"
        }
      ],
      "stateMutability": "view",
      "type": "function"
    },
    {
      "inputs": [
        {
          "internalType": "uint256",
          "name": "_tokenId",
          "type": "uint256"
        }
      ],
      "name": "ownerOf",
      "outputs": [
        {
          "internalType": "address",
          "name": "",
          "type": "address"
        }
      ],
      "stateMutability": "view",
      "type": "function"
    },
    {
      "inputs": [],
      "name": "symbol",
      "outputs": [
        {
          "internalType": "string",
          "name": "",
          "type": "string"
        }
      ],
      "stateMutability": "view",
      "type": "function"
    },
    {
      "inputs": [
        {
          "internalType": "uint256",
          "name": "_index",
          "type": "uint256"
        }
      ],
      "name": "tokenByIndex",
      "outputs": [
        {
          "internalType": "uint256",
          "name": "",
          "type": "uint256"
        }
      ],
      "stateMutability": "view",
      "type": "function"
    },
    {
      "inputs": [
        {
          "internalType": "address",
          "name": "_owner",
          "type": "address"
        },
        {
          "internalType": "uint256",
          "name": "_index",
          "type": "uint256"
        }
      ],
      "name": "tokenOfOwnerByIndex",
      "outputs": [
        {
          "internalType": "uint256",
          "name": "",
          "type": "uint256"
        }
      ],
      "stateMutability": "view",
      "type": "function"
    },
    {
      "inputs": [],
      "name": "totalSupply",
      "outputs": [
        {
          "internalType": "uint256",
          "name": "",
          "type": "uint256"
        }
      ],
      "stateMutability": "view",
      "type": "function"
    },
    {
      "inputs": [
        {
          "internalType": "address",
          "name": "_from",
          "type": "address"
        },
        {
          "internalType": "address",
          "name": "_to",
          "type": "address"
        },
        {
          "internalType": "uint256",
          "name": "_tokenId",
          "type": "uint256"
        }
      ],
      "name": "transferFrom",
      "outputs": [],
      "stateMutability": "nonpayable",
      "type": "function"
    }
  ],
  "bytecode": "0x60806040523480156200001157600080fd5b50604051620012ef380380620012ef8339818101604052810190620000379190620002c2565b818181600090805190602001906200005192919062000075565b5080600190805190602001906200006a92919062000075565b5050505050620003ac565b828054620000839062000376565b90600052602060002090601f016020900481019282620000a75760008555620000f3565b82601f10620000c257805160ff1916838001178555620000f3565b82800160010185558215620000f3579182015b82811115620000f2578251825591602001919060010190620000d5565b5b50905062000102919062000106565b5090565b5b808211156200012157600081600090555060010162000107565b5090565b6000604051905090565b600080fd5b600080fd5b600080fd5b600080fd5b6000601f19601f8301169050919050565b7f4e487b7100000000000000000000000000000000000000000000000000000000600052604160045260246000fd5b6200018e8262000143565b810181811067ffffffffffffffff82111715620001b057620001af62000154565b5b80604052505050565b6000620001c562000125565b9050620001d3828262000183565b919050565b600067ffffffffffffffff821115620001f657620001f562000154565b5b620002018262000143565b9050602081019050919050565b60005b838110156200022e57808201518184015260208101905062000211565b838111156200023e576000848401525b50505050565b60006200025b6200025584620001d8565b620001b9565b9050828152602081018484840111156200027a57620002796200013e565b5b620002878482856200020e565b509392505050565b600082601f830112620002a757620002a662000139565b5b8151620002b984826020860162000244565b91505092915050565b60008060408385031215620002dc57620002db6200012f565b5b600083015167ffffffffffffffff811115620002fd57620002fc62000134565b5b6200030b858286016200028f565b925050602083015167ffffffffffffffff8111156200032f576200032e62000134565b5b6200033d858286016200028f565b9150509250929050565b7f4e487b7100000000000000000000000000000000000000000000000000000000600052602260045260246000fd5b600060028204905060018216806200038f57607f821691505b60208210811415620003a657620003a562000347565b5b50919050565b610f3380620003bc6000396000f3fe608060405234801561001057600080fd5b50600436106100885760003560e01c80634f6ccce71161005b5780634f6ccce7146101155780636352211e1461014557806370a082311461017557806395d89b41146101a557610088565b806306fdde031461008d57806318160ddd146100ab57806323b872dd146100c95780632f745c59146100e5575b600080fd5b6100956101c3565b6040516100a291906108e4565b60405180910390f35b6100b3610255565b6040516100c0919061091f565b60405180910390f35b6100e360048036038101906100de91906109c9565b610262565b005b6100ff60048036038101906100fa9190610a1c565b610272565b60405161010c919061091f565b60405180910390f35b61012f600480360381019061012a9190610a5c565b610322565b60405161013c919061091f565b60405180910390f35b61015f600480360381019061015a9190610a5c565b610393565b60405161016c9190610a98565b60405180910390f35b61018f600480360381019061018a9190610ab3565b610445565b60405161019c919061091f565b60405180910390f35b6101ad610503565b6040516101ba91906108e4565b60405180910390f35b6060600080546101d290610b0f565b80601f01602080910402602001604051908101604052809291908181526020018280546101fe90610b0f565b801561024b5780601f106102205761010080835404028352916020019161024b565b820191906000526020600020905b81548152906001019060200180831161022e57829003601f168201915b5050505050905090565b6000600580549050905090565b61026d838383610595565b505050565b600061027d83610445565b82106102be576040517f08c379a00000000000000000000000000000000000000000000000000000000081526004016102b590610b8d565b60405180910390fd5b600760008473ffffffffffffffffffffffffffffffffffffffff1673ffffffffffffffffffffffffffffffffffffffff168152602001908152602001600020828154811061030f5761030e610bad565b5b9060005260206000200154905092915050565b600061032c610255565b821061036d576040517f08c379a000000000000000000000000000000000000000000000000000000000815260040161036490610c28565b60405180910390fd5b6005828154811061038157610380610bad565b5b90600052602060002001549050919050565b6000806002600084815260200190815260200160002060009054906101000a900473ffffffffffffffffffffffffffffffffffffffff169050600073ffffffffffffffffffffffffffffffffffffffff168173ffffffffffffffffffffffffffffffffffffffff16141561043c576040517f08c379a000000000000000000000000000000000000000000000000000000000815260040161043390610c94565b60405180910390fd5b80915050919050565b60008073ffffffffffffffffffffffffffffffffffffffff168273ffffffffffffffffffffffffffffffffffffffff1614156104b6576040517f08c379a00000000000000000000000000000000000000000000000000000000081526004016104ad90610d26565b60405180910390fd5b6000600360008473ffffffffffffffffffffffffffffffffffffffff1673ffffffffffffffffffffffffffffffffffffffff16815260200190815260200160002054905080915050919050565b60606001805461051290610b0f565b80601f016020809104026020016040519081016040528092919081815260200182805461053e90610b0f565b801561058b5780601f106105605761010080835404028352916020019161058b565b820191906000526020600020905b81548152906001019060200180831161056e57829003601f168201915b5050505050905090565b600073ffffffffffffffffffffffffffffffffffffffff168273ffffffffffffffffffffffffffffffffffffffff161415610605576040517f08c379a00000000000000000000000000000000000000000000000000000000081526004016105fc90610d92565b60405180910390fd5b8273ffffffffffffffffffffffffffffffffffffffff1661062582610393565b73ffffffffffffffffffffffffffffffffffffffff161461067b576040517f08c379a000000000000000000000000000000000000000000000000000000000815260040161067290610e24565b60405180910390fd5b6001600360008573ffffffffffffffffffffffffffffffffffffffff1673ffffffffffffffffffffffffffffffffffffffff168152602001908152602001600020546106c79190610e73565b600360008573ffffffffffffffffffffffffffffffffffffffff1673ffffffffffffffffffffffffffffffffffffffff168152602001908152602001600020819055506001600360008473ffffffffffffffffffffffffffffffffffffffff1673ffffffffffffffffffffffffffffffffffffffff168152602001908152602001600020546107569190610ea7565b600360008473ffffffffffffffffffffffffffffffffffffffff1673ffffffffffffffffffffffffffffffffffffffff16815260200190815260200160002081905550816004600083815260200190815260200160002060006101000a81548173ffffffffffffffffffffffffffffffffffffffff021916908373ffffffffffffffffffffffffffffffffffffffff160217905550808273ffffffffffffffffffffffffffffffffffffffff168473ffffffffffffffffffffffffffffffffffffffff167fddf252ad1be2c89b69c2b068fc378daa952ba7f163c4a11628f55a4df523b3ef60405160405180910390a4505050565b600081519050919050565b600082825260208201905092915050565b60005b8381101561088557808201518184015260208101905061086a565b83811115610894576000848401525b50505050565b6000601f19601f8301169050919050565b60006108b68261084b565b6108c08185610856565b93506108d0818560208601610867565b6108d98161089a565b840191505092915050565b600060208201905081810360008301526108fe81846108ab565b905092915050565b6000819050919050565b61091981610906565b82525050565b60006020820190506109346000830184610910565b92915050565b600080fd5b600073ffffffffffffffffffffffffffffffffffffffff82169050919050565b600061096a8261093f565b9050919050565b61097a8161095f565b811461098557600080fd5b50565b60008135905061099781610971565b92915050565b6109a681610906565b81146109b157600080fd5b50565b6000813590506109c38161099d565b92915050565b6000806000606084860312156109e2576109e161093a565b5b60006109f086828701610988565b9350506020610a0186828701610988565b9250506040610a12868287016109b4565b9150509250925092565b60008060408385031215610a3357610a3261093a565b5b6000610a4185828601610988565b9250506020610a52858286016109b4565b9150509250929050565b600060208284031215610a7257610a7161093a565b5b6000610a80848285016109b4565b91505092915050565b610a928161095f565b82525050565b6000602082019050610aad6000830184610a89565b92915050565b600060208284031215610ac957610ac861093a565b5b6000610ad784828501610988565b91505092915050565b7f4e487b7100000000000000000000000000000000000000000000000000000000600052602260045260246000fd5b60006002820490506001821680610b2757607f821691505b60208210811415610b3b57610b3a610ae0565b5b50919050565b7f6f776e657220696e646578206973206f7574206f6620626f756e640000000000600082015250565b6000610b77601b83610856565b9150610b8282610b41565b602082019050919050565b60006020820190508181036000830152610ba681610b6a565b9050919050565b7f4e487b7100000000000000000000000000000000000000000000000000000000600052603260045260246000fd5b7f676c6f626c6520696e646578206973206f7574206f6620626f756e6400000000600082015250565b6000610c12601c83610856565b9150610c1d82610bdc565b602082019050919050565b60006020820190508181036000830152610c4181610c05565b9050919050565b7f4572726f72202d20746f6b656e20646f6573206e6f7420657869737421000000600082015250565b6000610c7e601d83610856565b9150610c8982610c48565b602082019050919050565b60006020820190508181036000830152610cad81610c71565b9050919050565b7f4572726f72202d206164647265737320697320696e76616c6964206f72207a6560008201527f726f000000000000000000000000000000000000000000000000000000000000602082015250565b6000610d10602283610856565b9150610d1b82610cb4565b604082019050919050565b60006020820190508181036000830152610d3f81610d03565b9050919050565b7f4572726f72202d20616464726573732063616e206e6f74206265207a65726f00600082015250565b6000610d7c601f83610856565b9150610d8782610d46565b602082019050919050565b60006020820190508181036000830152610dab81610d6f565b9050919050565b7f4572726f72202d20796f7520646f206e6f74206f776e65642074686520746f6b60008201527f656e000000000000000000000000000000000000000000000000000000000000602082015250565b6000610e0e602283610856565b9150610e1982610db2565b604082019050919050565b60006020820190508181036000830152610e3d81610e01565b9050919050565b7f4e487b7100000000000000000000000000000000000000000000000000000000600052601160045260246000fd5b6000610e7e82610906565b9150610e8983610906565b925082821015610e9c57610e9b610e44565b5b828203905092915050565b6000610eb282610906565b9150610ebd83610906565b9250827fffffffffffffffffffffffffffffffffffffffffffffffffffffffffffffffff03821115610ef257610ef1610e44565b5b82820190509291505056fea2646970667358221220de0b57adc373fe379bdabdd0fbe8df69fd2c5f76693faa87934d0dd75625614a64736f6c634300080b0033",
  "immutableReferences": {},
  "source": "// SPDX-License-Identifier: MIT\r\npragma solidity ^0.8.0;\r\n\r\nimport './ERC721Metadata.sol';\r\nimport './ERC721Enumerable.sol';\r\n\r\n\r\ncontract ERC721Connector is ERC721Metadata, ERC721Enumerable {\r\n\r\n   constructor(string memory name, string memory symbol) ERC721Metadata(name, symbol) {\r\n\r\n   }\r\n}",
  "sourcePath": "C:\\Users\\Haier\\Documents\\Blockchain\\nft-marketplace-starter-kit\\src\\contracts\\ERC721Connector.sol",
  "compiler": {
    "name": "solc",
    "version": "0.8.11+commit.d7f03943.Emscripten.clang"
  },
  "schemaVersion": "3.4.4",
  "updatedAt": "2022-02-06T15:41:02.212Z",
  "devdoc": {
    "kind": "dev",
    "methods": {
      "balanceOf(address)": {
        "details": "NFTs assigned to the zero address are considered invalid, and this  function throws for queries about the zero address.",
        "params": {
          "_owner": "An address for whom to query the balance"
        },
        "returns": {
          "_0": "The number of NFTs owned by `_owner`, possibly zero"
        }
      },
      "ownerOf(uint256)": {
        "details": "NFTs assigned to zero address are considered invalid, and queries  about them do throw.",
        "params": {
          "_tokenId": "The identifier for an NFT"
        },
        "returns": {
          "_0": "The address of the owner of the NFT"
        }
      }
    },
    "version": 1
  },
  "userdoc": {
    "kind": "user",
    "methods": {
      "balanceOf(address)": {
        "notice": "Count all NFTs assigned to an owner"
      },
      "ownerOf(uint256)": {
        "notice": "Find the owner of an NFT"
      }
    },
    "version": 1
  }
}