{
  "contractName": "ERC721",
  "abi": [
    {
      "inputs": [],
      "stateMutability": "nonpayable",
      "type": "constructor"
    },
    {
      "anonymous": false,
      "inputs": [
        {
          "indexed": true,
          "internalType": "address",
          "name": "_owner",
          "type": "address"
        },
        {
          "indexed": true,
          "internalType": "address",
          "name": "_approved",
          "type": "address"
        },
        {
          "indexed": true,
          "internalType": "uint256",
          "name": "_tokenId",
          "type": "uint256"
        }
      ],
      "name": "Approval",
      "type": "event"
    },
    {
      "anonymous": false,
      "inputs": [
        {
          "indexed": true,
          "internalType": "address",
          "name": "_from",
          "type": "address"
        },
        {
          "indexed": true,
          "internalType": "address",
          "name": "_to",
          "type": "address"
        },
        {
          "indexed": true,
          "internalType": "uint256",
          "name": "_tokenId",
          "type": "uint256"
        }
      ],
      "name": "Transfer",
      "type": "event"
    },
    {
      "inputs": [
        {
          "internalType": "bytes4",
          "name": "interfaceID",
          "type": "bytes4"
        }
      ],
      "name": "supportsInterface",
      "outputs": [
        {
          "internalType": "bool",
          "name": "",
          "type": "bool"
        }
      ],
      "stateMutability": "view",
      "type": "function"
    },
    {
      "inputs": [
        {
          "internalType": "address",
          "name": "_owner",
          "type": "address"
        }
      ],
      "name": "balanceOf",
      "outputs": [
        {
          "internalType": "uint256",
          "name": "",
          "type": "uint256"
        }
      ],
      "stateMutability": "view",
      "type": "function"
    },
    {
      "inputs": [
        {
          "internalType": "uint256",
          "name": "_tokenId",
          "type": "uint256"
        }
      ],
      "name": "ownerOf",
      "outputs": [
        {
          "internalType": "address",
          "name": "",
          "type": "address"
        }
      ],
      "stateMutability": "view",
      "type": "function"
    },
    {
      "inputs": [
        {
          "internalType": "address",
          "name": "_from",
          "type": "address"
        },
        {
          "internalType": "address",
          "name": "_to",
          "type": "address"
        },
        {
          "internalType": "uint256",
          "name": "_tokenId",
          "type": "uint256"
        }
      ],
      "name": "transferFrom",
      "outputs": [],
      "stateMutability": "nonpayable",
      "type": "function"
    }
  ],
  "bytecode": "0x608060405234801561001057600080fd5b506100407f01ffc9a7a5cef8baa21ed3c5c0d7e23accb804b619e9333b597f47a0d84076e26100b860201b60201c565b6100b37fb1dda59161649641e744908166230d3fdceebc0fcb02fb37b49a517f29ef97e47f3a6eb71757dfc6e784c1459d26270140c2c147d95ca985c80026fc5301c3eca17f8a7e378434598edc36d108689a030cbc9d7d465de4f74c71bae1028eed6a881b18186100b860201b60201c565b61020a565b63ffffffff60e01b817bffffffffffffffffffffffffffffffffffffffffffffffffffffffff19161415610121576040517f08c379a0000000000000000000000000000000000000000000000000000000008152600401610118906101ea565b60405180910390fd5b6001600080837bffffffffffffffffffffffffffffffffffffffffffffffffffffffff19167bffffffffffffffffffffffffffffffffffffffffffffffffffffffff1916815260200190815260200160002060006101000a81548160ff02191690831515021790555050565b600082825260208201905092915050565b7f496e76616c696420696e74657266616365204944000000000000000000000000600082015250565b60006101d460148361018d565b91506101df8261019e565b602082019050919050565b60006020820190508181036000830152610203816101c7565b9050919050565b610aeb806102196000396000f3fe608060405234801561001057600080fd5b506004361061004c5760003560e01c806301ffc9a71461005157806323b872dd146100815780636352211e1461009d57806370a08231146100cd575b600080fd5b61006b600480360381019061006691906105f7565b6100fd565b604051610078919061063f565b60405180910390f35b61009b600480360381019061009691906106ee565b610164565b005b6100b760048036038101906100b29190610741565b610174565b6040516100c4919061077d565b60405180910390f35b6100e760048036038101906100e29190610798565b610226565b6040516100f491906107d4565b60405180910390f35b6000806000837bffffffffffffffffffffffffffffffffffffffffffffffffffffffff19167bffffffffffffffffffffffffffffffffffffffffffffffffffffffff1916815260200190815260200160002060009054906101000a900460ff169050919050565b61016f8383836102e4565b505050565b6000806001600084815260200190815260200160002060009054906101000a900473ffffffffffffffffffffffffffffffffffffffff169050600073ffffffffffffffffffffffffffffffffffffffff168173ffffffffffffffffffffffffffffffffffffffff16141561021d576040517f08c379a00000000000000000000000000000000000000000000000000000000081526004016102149061084c565b60405180910390fd5b80915050919050565b60008073ffffffffffffffffffffffffffffffffffffffff168273ffffffffffffffffffffffffffffffffffffffff161415610297576040517f08c379a000000000000000000000000000000000000000000000000000000000815260040161028e906108de565b60405180910390fd5b6000600260008473ffffffffffffffffffffffffffffffffffffffff1673ffffffffffffffffffffffffffffffffffffffff16815260200190815260200160002054905080915050919050565b600073ffffffffffffffffffffffffffffffffffffffff168273ffffffffffffffffffffffffffffffffffffffff161415610354576040517f08c379a000000000000000000000000000000000000000000000000000000000815260040161034b9061094a565b60405180910390fd5b8273ffffffffffffffffffffffffffffffffffffffff1661037482610174565b73ffffffffffffffffffffffffffffffffffffffff16146103ca576040517f08c379a00000000000000000000000000000000000000000000000000000000081526004016103c1906109dc565b60405180910390fd5b6001600260008573ffffffffffffffffffffffffffffffffffffffff1673ffffffffffffffffffffffffffffffffffffffff168152602001908152602001600020546104169190610a2b565b600260008573ffffffffffffffffffffffffffffffffffffffff1673ffffffffffffffffffffffffffffffffffffffff168152602001908152602001600020819055506001600260008473ffffffffffffffffffffffffffffffffffffffff1673ffffffffffffffffffffffffffffffffffffffff168152602001908152602001600020546104a59190610a5f565b600260008473ffffffffffffffffffffffffffffffffffffffff1673ffffffffffffffffffffffffffffffffffffffff16815260200190815260200160002081905550816003600083815260200190815260200160002060006101000a81548173ffffffffffffffffffffffffffffffffffffffff021916908373ffffffffffffffffffffffffffffffffffffffff160217905550808273ffffffffffffffffffffffffffffffffffffffff168473ffffffffffffffffffffffffffffffffffffffff167fddf252ad1be2c89b69c2b068fc378daa952ba7f163c4a11628f55a4df523b3ef60405160405180910390a4505050565b600080fd5b60007fffffffff0000000000000000000000000000000000000000000000000000000082169050919050565b6105d48161059f565b81146105df57600080fd5b50565b6000813590506105f1816105cb565b92915050565b60006020828403121561060d5761060c61059a565b5b600061061b848285016105e2565b91505092915050565b60008115159050919050565b61063981610624565b82525050565b60006020820190506106546000830184610630565b92915050565b600073ffffffffffffffffffffffffffffffffffffffff82169050919050565b60006106858261065a565b9050919050565b6106958161067a565b81146106a057600080fd5b50565b6000813590506106b28161068c565b92915050565b6000819050919050565b6106cb816106b8565b81146106d657600080fd5b50565b6000813590506106e8816106c2565b92915050565b6000806000606084860312156107075761070661059a565b5b6000610715868287016106a3565b9350506020610726868287016106a3565b9250506040610737868287016106d9565b9150509250925092565b6000602082840312156107575761075661059a565b5b6000610765848285016106d9565b91505092915050565b6107778161067a565b82525050565b6000602082019050610792600083018461076e565b92915050565b6000602082840312156107ae576107ad61059a565b5b60006107bc848285016106a3565b91505092915050565b6107ce816106b8565b82525050565b60006020820190506107e960008301846107c5565b92915050565b600082825260208201905092915050565b7f4572726f72202d20746f6b656e20646f6573206e6f7420657869737421000000600082015250565b6000610836601d836107ef565b915061084182610800565b602082019050919050565b6000602082019050818103600083015261086581610829565b9050919050565b7f4572726f72202d206164647265737320697320696e76616c6964206f72207a6560008201527f726f000000000000000000000000000000000000000000000000000000000000602082015250565b60006108c86022836107ef565b91506108d38261086c565b604082019050919050565b600060208201905081810360008301526108f7816108bb565b9050919050565b7f4572726f72202d20616464726573732063616e206e6f74206265207a65726f00600082015250565b6000610934601f836107ef565b915061093f826108fe565b602082019050919050565b6000602082019050818103600083015261096381610927565b9050919050565b7f4572726f72202d20796f7520646f206e6f74206f776e65642074686520746f6b60008201527f656e000000000000000000000000000000000000000000000000000000000000602082015250565b60006109c66022836107ef565b91506109d18261096a565b604082019050919050565b600060208201905081810360008301526109f5816109b9565b9050919050565b7f4e487b7100000000000000000000000000000000000000000000000000000000600052601160045260246000fd5b6000610a36826106b8565b9150610a41836106b8565b925082821015610a5457610a536109fc565b5b828203905092915050565b6000610a6a826106b8565b9150610a75836106b8565b9250827fffffffffffffffffffffffffffffffffffffffffffffffffffffffffffffffff03821115610aaa57610aa96109fc565b5b82820190509291505056fea2646970667358221220c2126ea2fc0b124cf7c040fb93271b1b9f05098f268dc4c73b485730caeefd5664736f6c634300080b0033",
  "immutableReferences": {},
  "source": "// SPDX-License-Identifier: MIT\r\npragma solidity ^0.8.0;\r\nimport './ERC165.sol';\r\nimport './interfaces/IERC721.sol';\r\n\r\ncontract ERC721 is ERC165, IERC721 {\r\n\r\n\r\n\r\n  constructor() {\r\n      _registerInterface(bytes4(keccak256('balanceOf(bytes4)')^keccak256('ownerOf(bytes4)')^keccak256('tranferFrom(bytes4')));\r\n  }\r\n\r\n\r\n   //track token ids to address\r\n   mapping(uint256 => address) private _tokenOwner;\r\n\r\n   //track address to token ids\r\n   mapping(address => uint256) private _tokenOwnedCount;\r\n\r\n   //mapping from tokenId to approved addresses\r\n   mapping(uint256 => address) private _tokensApproval;\r\n\r\n\r\n  //check whether the token exists or not\r\n  function _exist(uint256 tokenId) view internal returns(bool) {\r\n      //get the address again the tokenId\r\n      address owner = _tokenOwner[tokenId];\r\n      //return true or false based on the condition\r\n      return owner != address(0);\r\n  }\r\n  \r\n\r\n    /// @notice Count all NFTs assigned to an owner\r\n    /// @dev NFTs assigned to the zero address are considered invalid, and this\r\n    ///  function throws for queries about the zero address.\r\n    /// @param _owner An address for whom to query the balance\r\n    /// @return The number of NFTs owned by `_owner`, possibly zero\r\n\r\n    function balanceOf(address _owner) public override view returns (uint256) {\r\n        require(_owner != address(0), 'Error - address is invalid or zero');\r\n        uint256 tokens = _tokenOwnedCount[_owner];\r\n        return tokens;\r\n    }\r\n\r\n    /// @notice Find the owner of an NFT\r\n    /// @dev NFTs assigned to zero address are considered invalid, and queries\r\n    ///  about them do throw.\r\n    /// @param _tokenId The identifier for an NFT\r\n    /// @return The address of the owner of the NFT\r\n\r\n    function ownerOf(uint256 _tokenId) public override view returns (address){\r\n        address owner = _tokenOwner[_tokenId];\r\n        require(owner != address(0), 'Error - token does not exist!');\r\n        return owner;\r\n    } \r\n\r\n\r\n  \r\n  //minting the tokens\r\n   function _mint(address to, uint256 tokenId) internal virtual {\r\n       //minting should not be zero\r\n       require(to != address(0), 'ERC721: minting to zero address'); \r\n       //token should not exist before\r\n       require(!_exist(tokenId), 'ERC721: token should not already exist');\r\n       //setting the address to the tokenId\r\n       _tokenOwner[tokenId] = to;\r\n       //increasing the token count to the address\r\n       _tokenOwnedCount[to] = _tokenOwnedCount[to] + 1; \r\n       //emit the event\r\n       emit Transfer(address(0), to, tokenId);\r\n   }\r\n\r\n\r\n    /// @notice Transfer ownership of an NFT -- THE CALLER IS RESPONSIBLE\r\n    ///  TO CONFIRM THAT `_to` IS CAPABLE OF RECEIVING NFTS OR ELSE\r\n    ///  THEY MAY BE PERMANENTLY LOST\r\n    /// @dev Throws unless `msg.sender` is the current owner, an authorized\r\n    ///  operator, or the approved address for this NFT. Throws if `_from` is\r\n    ///  not the current owner. Throws if `_to` is the zero address. Throws if\r\n    ///  `_tokenId` is not a valid NFT.\r\n    /// @param _from The current owner of the NFT\r\n    /// @param _to The new owner\r\n    /// @param _tokenId The NFT to transfer\r\n\r\n    //implementation function\r\n    function _transferFrom(address _from, address _to, uint256 _tokenId) internal {\r\n        //map token id to the address receiving the token\r\n        require(_to != address(0), 'Error - address can not be zero');\r\n        // tranferring address should own the token\r\n        require(ownerOf(_tokenId) == _from, 'Error - you do not owned the token');\r\n\r\n        //update the balance of the owner\r\n        _tokenOwnedCount[_from] = _tokenOwnedCount[_from] - 1;\r\n        //aupdate the balance of the receiver\r\n        _tokenOwnedCount[_to] = _tokenOwnedCount[_to] + 1;\r\n\r\n        //transfer token id to the receiver address\r\n        _tokensApproval[_tokenId] = _to;\r\n\r\n        emit Transfer(_from, _to, _tokenId);\r\n    }\r\n\r\n    function transferFrom(address _from, address  _to, uint256 _tokenId) public override {\r\n        _transferFrom(_from, _to, _tokenId);\r\n    }\r\n\r\n  \r\n\r\n\r\n}",
  "sourcePath": "C:\\Users\\Haier\\Documents\\Blockchain\\nft-marketplace-starter-kit\\src\\contracts\\ERC721.sol",
  "compiler": {
    "name": "solc",
    "version": "0.8.11+commit.d7f03943.Emscripten.clang"
  },
  "schemaVersion": "3.4.4",
  "updatedAt": "2022-02-14T14:53:07.914Z",
  "devdoc": {
    "kind": "dev",
    "methods": {
      "balanceOf(address)": {
        "details": "NFTs assigned to the zero address are considered invalid, and this  function throws for queries about the zero address.",
        "params": {
          "_owner": "An address for whom to query the balance"
        },
        "returns": {
          "_0": "The number of NFTs owned by `_owner`, possibly zero"
        }
      },
      "ownerOf(uint256)": {
        "details": "NFTs assigned to zero address are considered invalid, and queries  about them do throw.",
        "params": {
          "_tokenId": "The identifier for an NFT"
        },
        "returns": {
          "_0": "The address of the owner of the NFT"
        }
      },
      "supportsInterface(bytes4)": {
        "details": "Interface identification is specified in ERC-165. This function  uses less than 30,000 gas.",
        "params": {
          "interfaceID": "The interface identifier, as specified in ERC-165"
        },
        "returns": {
          "_0": "`true` if the contract implements `interfaceID` and  `interfaceID` is not 0xffffffff, `false` otherwise"
        }
      }
    },
    "version": 1
  },
  "userdoc": {
    "kind": "user",
    "methods": {
      "balanceOf(address)": {
        "notice": "Count all NFTs assigned to an owner"
      },
      "ownerOf(uint256)": {
        "notice": "Find the owner of an NFT"
      },
      "supportsInterface(bytes4)": {
        "notice": "Query if a contract implements an interface"
      }
    },
    "version": 1
  }
}