{
  "contractName": "ERC721",
  "abi": [
    {
      "anonymous": false,
      "inputs": [
        {
          "indexed": true,
          "internalType": "address",
          "name": "from",
          "type": "address"
        },
        {
          "indexed": true,
          "internalType": "address",
          "name": "to",
          "type": "address"
        },
        {
          "indexed": true,
          "internalType": "uint256",
          "name": "tokenId",
          "type": "uint256"
        }
      ],
      "name": "Transfer",
      "type": "event"
    },
    {
      "inputs": [
        {
          "internalType": "address",
          "name": "_owner",
          "type": "address"
        }
      ],
      "name": "balanceOf",
      "outputs": [
        {
          "internalType": "uint256",
          "name": "",
          "type": "uint256"
        }
      ],
      "stateMutability": "view",
      "type": "function"
    },
    {
      "inputs": [
        {
          "internalType": "uint256",
          "name": "_tokenId",
          "type": "uint256"
        }
      ],
      "name": "ownerOf",
      "outputs": [
        {
          "internalType": "address",
          "name": "",
          "type": "address"
        }
      ],
      "stateMutability": "view",
      "type": "function"
    },
    {
      "inputs": [
        {
          "internalType": "address",
          "name": "_from",
          "type": "address"
        },
        {
          "internalType": "address",
          "name": "_to",
          "type": "address"
        },
        {
          "internalType": "uint256",
          "name": "_tokenId",
          "type": "uint256"
        }
      ],
      "name": "transferFrom",
      "outputs": [],
      "stateMutability": "nonpayable",
      "type": "function"
    }
  ],
  "bytecode": "0x608060405234801561001057600080fd5b5061098b806100206000396000f3fe608060405234801561001057600080fd5b50600436106100415760003560e01c806323b872dd146100465780636352211e1461006257806370a0823114610092575b600080fd5b610060600480360381019061005b919061058e565b6100c2565b005b61007c600480360381019061007791906105e1565b6100d2565b604051610089919061061d565b60405180910390f35b6100ac60048036038101906100a79190610638565b610183565b6040516100b99190610674565b60405180910390f35b6100cd838383610241565b505050565b60008060008084815260200190815260200160002060009054906101000a900473ffffffffffffffffffffffffffffffffffffffff169050600073ffffffffffffffffffffffffffffffffffffffff168173ffffffffffffffffffffffffffffffffffffffff16141561017a576040517f08c379a0000000000000000000000000000000000000000000000000000000008152600401610171906106ec565b60405180910390fd5b80915050919050565b60008073ffffffffffffffffffffffffffffffffffffffff168273ffffffffffffffffffffffffffffffffffffffff1614156101f4576040517f08c379a00000000000000000000000000000000000000000000000000000000081526004016101eb9061077e565b60405180910390fd5b6000600160008473ffffffffffffffffffffffffffffffffffffffff1673ffffffffffffffffffffffffffffffffffffffff16815260200190815260200160002054905080915050919050565b600073ffffffffffffffffffffffffffffffffffffffff168273ffffffffffffffffffffffffffffffffffffffff1614156102b1576040517f08c379a00000000000000000000000000000000000000000000000000000000081526004016102a8906107ea565b60405180910390fd5b8273ffffffffffffffffffffffffffffffffffffffff166102d1826100d2565b73ffffffffffffffffffffffffffffffffffffffff1614610327576040517f08c379a000000000000000000000000000000000000000000000000000000000815260040161031e9061087c565b60405180910390fd5b60018060008573ffffffffffffffffffffffffffffffffffffffff1673ffffffffffffffffffffffffffffffffffffffff1681526020019081526020016000205461037291906108cb565b600160008573ffffffffffffffffffffffffffffffffffffffff1673ffffffffffffffffffffffffffffffffffffffff1681526020019081526020016000208190555060018060008473ffffffffffffffffffffffffffffffffffffffff1673ffffffffffffffffffffffffffffffffffffffff1681526020019081526020016000205461040091906108ff565b600160008473ffffffffffffffffffffffffffffffffffffffff1673ffffffffffffffffffffffffffffffffffffffff16815260200190815260200160002081905550816002600083815260200190815260200160002060006101000a81548173ffffffffffffffffffffffffffffffffffffffff021916908373ffffffffffffffffffffffffffffffffffffffff160217905550808273ffffffffffffffffffffffffffffffffffffffff168473ffffffffffffffffffffffffffffffffffffffff167fddf252ad1be2c89b69c2b068fc378daa952ba7f163c4a11628f55a4df523b3ef60405160405180910390a4505050565b600080fd5b600073ffffffffffffffffffffffffffffffffffffffff82169050919050565b6000610525826104fa565b9050919050565b6105358161051a565b811461054057600080fd5b50565b6000813590506105528161052c565b92915050565b6000819050919050565b61056b81610558565b811461057657600080fd5b50565b60008135905061058881610562565b92915050565b6000806000606084860312156105a7576105a66104f5565b5b60006105b586828701610543565b93505060206105c686828701610543565b92505060406105d786828701610579565b9150509250925092565b6000602082840312156105f7576105f66104f5565b5b600061060584828501610579565b91505092915050565b6106178161051a565b82525050565b6000602082019050610632600083018461060e565b92915050565b60006020828403121561064e5761064d6104f5565b5b600061065c84828501610543565b91505092915050565b61066e81610558565b82525050565b60006020820190506106896000830184610665565b92915050565b600082825260208201905092915050565b7f4572726f72202d20746f6b656e20646f6573206e6f7420657869737421000000600082015250565b60006106d6601d8361068f565b91506106e1826106a0565b602082019050919050565b60006020820190508181036000830152610705816106c9565b9050919050565b7f4572726f72202d206164647265737320697320696e76616c6964206f72207a6560008201527f726f000000000000000000000000000000000000000000000000000000000000602082015250565b600061076860228361068f565b91506107738261070c565b604082019050919050565b600060208201905081810360008301526107978161075b565b9050919050565b7f4572726f72202d20616464726573732063616e206e6f74206265207a65726f00600082015250565b60006107d4601f8361068f565b91506107df8261079e565b602082019050919050565b60006020820190508181036000830152610803816107c7565b9050919050565b7f4572726f72202d20796f7520646f206e6f74206f776e65642074686520746f6b60008201527f656e000000000000000000000000000000000000000000000000000000000000602082015250565b600061086660228361068f565b91506108718261080a565b604082019050919050565b6000602082019050818103600083015261089581610859565b9050919050565b7f4e487b7100000000000000000000000000000000000000000000000000000000600052601160045260246000fd5b60006108d682610558565b91506108e183610558565b9250828210156108f4576108f361089c565b5b828203905092915050565b600061090a82610558565b915061091583610558565b9250827fffffffffffffffffffffffffffffffffffffffffffffffffffffffffffffffff0382111561094a5761094961089c565b5b82820190509291505056fea2646970667358221220848c983183c68f9287df5846a84374672755a05de1f2b55f64262e5a9c58202864736f6c634300080b0033",
  "immutableReferences": {},
  "source": "// SPDX-License-Identifier: MIT\r\npragma solidity ^0.8.0;\r\n\r\ncontract ERC721 {\r\n\r\n\r\n    //emit event\r\n    event Transfer(\r\n    address indexed from, \r\n    address indexed to, \r\n    uint256 indexed tokenId);\r\n\r\n   //track token ids to address\r\n   mapping(uint256 => address) private _tokenOwner;\r\n\r\n   //track address to token ids\r\n   mapping(address => uint256) private _tokenOwnedCount;\r\n\r\n   //mapping from tokenId to approved addresses\r\n   mapping(uint256 => address) private _tokensApproval;\r\n\r\n\r\n  //check whether the token exists or not\r\n  function _exist(uint256 tokenId) view internal returns(bool) {\r\n      //get the address again the tokenId\r\n      address owner = _tokenOwner[tokenId];\r\n      //return true or false based on the condition\r\n      return owner != address(0);\r\n  }\r\n  \r\n\r\n    /// @notice Count all NFTs assigned to an owner\r\n    /// @dev NFTs assigned to the zero address are considered invalid, and this\r\n    ///  function throws for queries about the zero address.\r\n    /// @param _owner An address for whom to query the balance\r\n    /// @return The number of NFTs owned by `_owner`, possibly zero\r\n\r\n    function balanceOf(address _owner) public view returns (uint256) {\r\n        require(_owner != address(0), 'Error - address is invalid or zero');\r\n        uint256 tokens = _tokenOwnedCount[_owner];\r\n        return tokens;\r\n    }\r\n\r\n    /// @notice Find the owner of an NFT\r\n    /// @dev NFTs assigned to zero address are considered invalid, and queries\r\n    ///  about them do throw.\r\n    /// @param _tokenId The identifier for an NFT\r\n    /// @return The address of the owner of the NFT\r\n\r\n    function ownerOf(uint256 _tokenId) public view returns (address){\r\n        address owner = _tokenOwner[_tokenId];\r\n        require(owner != address(0), 'Error - token does not exist!');\r\n        return owner;\r\n    } \r\n\r\n\r\n  \r\n  //minting the tokens\r\n   function _mint(address to, uint256 tokenId) internal virtual {\r\n       //minting should not be zero\r\n       require(to != address(0), 'ERC721: minting to zero address'); \r\n       //token should not exist before\r\n       require(!_exist(tokenId), 'ERC721: token should not already exist');\r\n       //setting the address to the tokenId\r\n       _tokenOwner[tokenId] = to;\r\n       //increasing the token count to the address\r\n       _tokenOwnedCount[to] = _tokenOwnedCount[to] + 1; \r\n       //emit the event\r\n       emit Transfer(address(0), to, tokenId);\r\n   }\r\n\r\n\r\n    /// @notice Transfer ownership of an NFT -- THE CALLER IS RESPONSIBLE\r\n    ///  TO CONFIRM THAT `_to` IS CAPABLE OF RECEIVING NFTS OR ELSE\r\n    ///  THEY MAY BE PERMANENTLY LOST\r\n    /// @dev Throws unless `msg.sender` is the current owner, an authorized\r\n    ///  operator, or the approved address for this NFT. Throws if `_from` is\r\n    ///  not the current owner. Throws if `_to` is the zero address. Throws if\r\n    ///  `_tokenId` is not a valid NFT.\r\n    /// @param _from The current owner of the NFT\r\n    /// @param _to The new owner\r\n    /// @param _tokenId The NFT to transfer\r\n\r\n    //implementation function\r\n    function _transferFrom(address _from, address _to, uint256 _tokenId) internal {\r\n        //map token id to the address receiving the token\r\n        require(_to != address(0), 'Error - address can not be zero');\r\n        // tranferring address should own the token\r\n        require(ownerOf(_tokenId) == _from, 'Error - you do not owned the token');\r\n\r\n        //update the balance of the owner\r\n        _tokenOwnedCount[_from] = _tokenOwnedCount[_from] - 1;\r\n        //aupdate the balance of the receiver\r\n        _tokenOwnedCount[_to] = _tokenOwnedCount[_to] + 1;\r\n\r\n        //transfer token id to the receiver address\r\n        _tokensApproval[_tokenId] = _to;\r\n\r\n        emit Transfer(_from, _to, _tokenId);\r\n    }\r\n\r\n    function transferFrom(address _from, address  _to, uint256 _tokenId) public{\r\n        _transferFrom(_from, _to, _tokenId);\r\n    }\r\n\r\n  \r\n\r\n\r\n}",
  "sourcePath": "C:\\Users\\Haier\\Documents\\Blockchain\\nft-marketplace-starter-kit\\src\\contracts\\ERC721.sol",
  "compiler": {
    "name": "solc",
    "version": "0.8.11+commit.d7f03943.Emscripten.clang"
  },
  "schemaVersion": "3.4.4",
  "updatedAt": "2022-02-06T15:41:02.139Z",
  "devdoc": {
    "kind": "dev",
    "methods": {
      "balanceOf(address)": {
        "details": "NFTs assigned to the zero address are considered invalid, and this  function throws for queries about the zero address.",
        "params": {
          "_owner": "An address for whom to query the balance"
        },
        "returns": {
          "_0": "The number of NFTs owned by `_owner`, possibly zero"
        }
      },
      "ownerOf(uint256)": {
        "details": "NFTs assigned to zero address are considered invalid, and queries  about them do throw.",
        "params": {
          "_tokenId": "The identifier for an NFT"
        },
        "returns": {
          "_0": "The address of the owner of the NFT"
        }
      }
    },
    "version": 1
  },
  "userdoc": {
    "kind": "user",
    "methods": {
      "balanceOf(address)": {
        "notice": "Count all NFTs assigned to an owner"
      },
      "ownerOf(uint256)": {
        "notice": "Find the owner of an NFT"
      }
    },
    "version": 1
  }
}