{
  "contractName": "KryptoBird",
  "abi": [
    {
      "inputs": [],
      "stateMutability": "nonpayable",
      "type": "constructor"
    },
    {
      "anonymous": false,
      "inputs": [
        {
          "indexed": true,
          "internalType": "address",
          "name": "_owner",
          "type": "address"
        },
        {
          "indexed": true,
          "internalType": "address",
          "name": "_approved",
          "type": "address"
        },
        {
          "indexed": true,
          "internalType": "uint256",
          "name": "_tokenId",
          "type": "uint256"
        }
      ],
      "name": "Approval",
      "type": "event"
    },
    {
      "anonymous": false,
      "inputs": [
        {
          "indexed": true,
          "internalType": "address",
          "name": "_from",
          "type": "address"
        },
        {
          "indexed": true,
          "internalType": "address",
          "name": "_to",
          "type": "address"
        },
        {
          "indexed": true,
          "internalType": "uint256",
          "name": "_tokenId",
          "type": "uint256"
        }
      ],
      "name": "Transfer",
      "type": "event"
    },
    {
      "inputs": [
        {
          "internalType": "address",
          "name": "_owner",
          "type": "address"
        }
      ],
      "name": "balanceOf",
      "outputs": [
        {
          "internalType": "uint256",
          "name": "",
          "type": "uint256"
        }
      ],
      "stateMutability": "view",
      "type": "function",
      "constant": true
    },
    {
      "inputs": [
        {
          "internalType": "uint256",
          "name": "",
          "type": "uint256"
        }
      ],
      "name": "kryptoBirds",
      "outputs": [
        {
          "internalType": "string",
          "name": "",
          "type": "string"
        }
      ],
      "stateMutability": "view",
      "type": "function",
      "constant": true
    },
    {
      "inputs": [],
      "name": "name",
      "outputs": [
        {
          "internalType": "string",
          "name": "",
          "type": "string"
        }
      ],
      "stateMutability": "view",
      "type": "function",
      "constant": true
    },
    {
      "inputs": [
        {
          "internalType": "uint256",
          "name": "_tokenId",
          "type": "uint256"
        }
      ],
      "name": "ownerOf",
      "outputs": [
        {
          "internalType": "address",
          "name": "",
          "type": "address"
        }
      ],
      "stateMutability": "view",
      "type": "function",
      "constant": true
    },
    {
      "inputs": [
        {
          "internalType": "bytes4",
          "name": "interfaceID",
          "type": "bytes4"
        }
      ],
      "name": "supportsInterface",
      "outputs": [
        {
          "internalType": "bool",
          "name": "",
          "type": "bool"
        }
      ],
      "stateMutability": "view",
      "type": "function",
      "constant": true
    },
    {
      "inputs": [],
      "name": "symbol",
      "outputs": [
        {
          "internalType": "string",
          "name": "",
          "type": "string"
        }
      ],
      "stateMutability": "view",
      "type": "function",
      "constant": true
    },
    {
      "inputs": [
        {
          "internalType": "uint256",
          "name": "_index",
          "type": "uint256"
        }
      ],
      "name": "tokenByIndex",
      "outputs": [
        {
          "internalType": "uint256",
          "name": "",
          "type": "uint256"
        }
      ],
      "stateMutability": "view",
      "type": "function",
      "constant": true
    },
    {
      "inputs": [
        {
          "internalType": "address",
          "name": "_owner",
          "type": "address"
        },
        {
          "internalType": "uint256",
          "name": "_index",
          "type": "uint256"
        }
      ],
      "name": "tokenOfOwnerByIndex",
      "outputs": [
        {
          "internalType": "uint256",
          "name": "",
          "type": "uint256"
        }
      ],
      "stateMutability": "view",
      "type": "function",
      "constant": true
    },
    {
      "inputs": [],
      "name": "totalSupply",
      "outputs": [
        {
          "internalType": "uint256",
          "name": "",
          "type": "uint256"
        }
      ],
      "stateMutability": "view",
      "type": "function",
      "constant": true
    },
    {
      "inputs": [
        {
          "internalType": "address",
          "name": "_from",
          "type": "address"
        },
        {
          "internalType": "address",
          "name": "_to",
          "type": "address"
        },
        {
          "internalType": "uint256",
          "name": "_tokenId",
          "type": "uint256"
        }
      ],
      "name": "transferFrom",
      "outputs": [],
      "stateMutability": "nonpayable",
      "type": "function"
    },
    {
      "inputs": [
        {
          "internalType": "string",
          "name": "_kryptoBird",
          "type": "string"
        }
      ],
      "name": "mint",
      "outputs": [],
      "stateMutability": "nonpayable",
      "type": "function"
    }
  ],
  "bytecode": "0x60806040523480156200001157600080fd5b506040518060400160405280600b81526020017f4b727970746f426972647a0000000000000000000000000000000000000000008152506040518060400160405280600681526020017f4b424952445a00000000000000000000000000000000000000000000000000008152508181620000b17f01ffc9a7a5cef8baa21ed3c5c0d7e23accb804b619e9333b597f47a0d84076e26200022a60201b60201c565b8160019080519060200190620000c992919062000302565b508060029080519060200190620000e292919062000302565b50620001367f13b182f4c0e5b2efbac0efe6cf6d756c8b89f4b79c5707a043ed9ea740574ee97f7feaf19471f34a12a7eaf32d5f3090aa2260ea8624dc8a138e74e0bf0f623076186200022a60201b60201c565b5050620001ad7fb1dda59161649641e744908166230d3fdceebc0fcb02fb37b49a517f29ef97e47f3a6eb71757dfc6e784c1459d26270140c2c147d95ca985c80026fc5301c3eca17f8a7e378434598edc36d108689a030cbc9d7d465de4f74c71bae1028eed6a881b18186200022a60201b60201c565b620002227fa8684d08b6653d259510e04914ac781cca846cf8f427ea8918064f3b1b6af2f47f6da5e1284143cdd2d15038a59bde3be031250f00291d64494c12d967b3a4e0c37fc53637662700e6c65104059db8bba34439e0c32483ab7c34e3ccae52c739549518186200022a60201b60201c565b50506200049a565b63ffffffff60e01b817bffffffffffffffffffffffffffffffffffffffffffffffffffffffff1916141562000296576040517f08c379a00000000000000000000000000000000000000000000000000000000081526004016200028d9062000413565b60405180910390fd5b6001600080837bffffffffffffffffffffffffffffffffffffffffffffffffffffffff19167bffffffffffffffffffffffffffffffffffffffffffffffffffffffff1916815260200190815260200160002060006101000a81548160ff02191690831515021790555050565b828054620003109062000464565b90600052602060002090601f01602090048101928262000334576000855562000380565b82601f106200034f57805160ff191683800117855562000380565b8280016001018555821562000380579182015b828111156200037f57825182559160200191906001019062000362565b5b5090506200038f919062000393565b5090565b5b80821115620003ae57600081600090555060010162000394565b5090565b600082825260208201905092915050565b7f496e76616c696420696e74657266616365204944000000000000000000000000600082015250565b6000620003fb601483620003b2565b91506200040882620003c3565b602082019050919050565b600060208201905081810360008301526200042e81620003ec565b9050919050565b7f4e487b7100000000000000000000000000000000000000000000000000000000600052602260045260246000fd5b600060028204905060018216806200047d57607f821691505b6020821081141562000494576200049362000435565b5b50919050565b611a4e80620004aa6000396000f3fe608060405234801561001057600080fd5b50600436106100a95760003560e01c80634f6ccce7116100715780634f6ccce7146101665780636352211e1461019657806370a08231146101c657806395d89b41146101f6578063b20dac5f14610214578063d85d3d2714610244576100a9565b806301ffc9a7146100ae57806306fdde03146100de57806318160ddd146100fc57806323b872dd1461011a5780632f745c5914610136575b600080fd5b6100c860048036038101906100c39190610fa7565b610260565b6040516100d59190610fef565b60405180910390f35b6100e66102c7565b6040516100f391906110a3565b60405180910390f35b610104610359565b60405161011191906110de565b60405180910390f35b610134600480360381019061012f9190611183565b610366565b005b610150600480360381019061014b91906111d6565b610376565b60405161015d91906110de565b60405180910390f35b610180600480360381019061017b9190611216565b610426565b60405161018d91906110de565b60405180910390f35b6101b060048036038101906101ab9190611216565b610497565b6040516101bd9190611252565b60405180910390f35b6101e060048036038101906101db919061126d565b610549565b6040516101ed91906110de565b60405180910390f35b6101fe610607565b60405161020b91906110a3565b60405180910390f35b61022e60048036038101906102299190611216565b610699565b60405161023b91906110a3565b60405180910390f35b61025e600480360381019061025991906113cf565b610745565b005b6000806000837bffffffffffffffffffffffffffffffffffffffffffffffffffffffff19167bffffffffffffffffffffffffffffffffffffffffffffffffffffffff1916815260200190815260200160002060009054906101000a900460ff169050919050565b6060600180546102d690611447565b80601f016020809104026020016040519081016040528092919081815260200182805461030290611447565b801561034f5780601f106103245761010080835404028352916020019161034f565b820191906000526020600020905b81548152906001019060200180831161033257829003601f168201915b5050505050905090565b6000600680549050905090565b610371838383610848565b505050565b600061038183610549565b82106103c2576040517f08c379a00000000000000000000000000000000000000000000000000000000081526004016103b9906114c5565b60405180910390fd5b600860008473ffffffffffffffffffffffffffffffffffffffff1673ffffffffffffffffffffffffffffffffffffffff1681526020019081526020016000208281548110610413576104126114e5565b5b9060005260206000200154905092915050565b6000610430610359565b8210610471576040517f08c379a000000000000000000000000000000000000000000000000000000000815260040161046890611560565b60405180910390fd5b60068281548110610485576104846114e5565b5b90600052602060002001549050919050565b6000806003600084815260200190815260200160002060009054906101000a900473ffffffffffffffffffffffffffffffffffffffff169050600073ffffffffffffffffffffffffffffffffffffffff168173ffffffffffffffffffffffffffffffffffffffff161415610540576040517f08c379a0000000000000000000000000000000000000000000000000000000008152600401610537906115cc565b60405180910390fd5b80915050919050565b60008073ffffffffffffffffffffffffffffffffffffffff168273ffffffffffffffffffffffffffffffffffffffff1614156105ba576040517f08c379a00000000000000000000000000000000000000000000000000000000081526004016105b19061165e565b60405180910390fd5b6000600460008473ffffffffffffffffffffffffffffffffffffffff1673ffffffffffffffffffffffffffffffffffffffff16815260200190815260200160002054905080915050919050565b60606002805461061690611447565b80601f016020809104026020016040519081016040528092919081815260200182805461064290611447565b801561068f5780601f106106645761010080835404028352916020019161068f565b820191906000526020600020905b81548152906001019060200180831161067257829003601f168201915b5050505050905090565b600a81815481106106a957600080fd5b9060005260206000200160009150905080546106c490611447565b80601f01602080910402602001604051908101604052809291908181526020018280546106f090611447565b801561073d5780601f106107125761010080835404028352916020019161073d565b820191906000526020600020905b81548152906001019060200180831161072057829003601f168201915b505050505081565b600b8160405161075591906116ba565b908152602001604051809103902060009054906101000a900460ff16156107b1576040517f08c379a00000000000000000000000000000000000000000000000000000000081526004016107a890611743565b60405180910390fd5b600a819080600181540180825580915050600190039060005260206000200160009091909190915090805190602001906107ec929190610e98565b5060006001600a805490506108019190611792565b905061080d3382610afe565b6001600b8360405161081f91906116ba565b908152602001604051809103902060006101000a81548160ff0219169083151502179055505050565b600073ffffffffffffffffffffffffffffffffffffffff168273ffffffffffffffffffffffffffffffffffffffff1614156108b8576040517f08c379a00000000000000000000000000000000000000000000000000000000081526004016108af90611812565b60405180910390fd5b8273ffffffffffffffffffffffffffffffffffffffff166108d882610497565b73ffffffffffffffffffffffffffffffffffffffff161461092e576040517f08c379a0000000000000000000000000000000000000000000000000000000008152600401610925906118a4565b60405180910390fd5b6001600460008573ffffffffffffffffffffffffffffffffffffffff1673ffffffffffffffffffffffffffffffffffffffff1681526020019081526020016000205461097a9190611792565b600460008573ffffffffffffffffffffffffffffffffffffffff1673ffffffffffffffffffffffffffffffffffffffff168152602001908152602001600020819055506001600460008473ffffffffffffffffffffffffffffffffffffffff1673ffffffffffffffffffffffffffffffffffffffff16815260200190815260200160002054610a0991906118c4565b600460008473ffffffffffffffffffffffffffffffffffffffff1673ffffffffffffffffffffffffffffffffffffffff16815260200190815260200160002081905550816005600083815260200190815260200160002060006101000a81548173ffffffffffffffffffffffffffffffffffffffff021916908373ffffffffffffffffffffffffffffffffffffffff160217905550808273ffffffffffffffffffffffffffffffffffffffff168473ffffffffffffffffffffffffffffffffffffffff167fddf252ad1be2c89b69c2b068fc378daa952ba7f163c4a11628f55a4df523b3ef60405160405180910390a4505050565b610b088282610b1f565b610b1181610d19565b610b1b8282610d62565b5050565b600073ffffffffffffffffffffffffffffffffffffffff168273ffffffffffffffffffffffffffffffffffffffff161415610b8f576040517f08c379a0000000000000000000000000000000000000000000000000000000008152600401610b8690611966565b60405180910390fd5b610b9881610e26565b15610bd8576040517f08c379a0000000000000000000000000000000000000000000000000000000008152600401610bcf906119f8565b60405180910390fd5b816003600083815260200190815260200160002060006101000a81548173ffffffffffffffffffffffffffffffffffffffff021916908373ffffffffffffffffffffffffffffffffffffffff1602179055506001600460008473ffffffffffffffffffffffffffffffffffffffff1673ffffffffffffffffffffffffffffffffffffffff16815260200190815260200160002054610c7691906118c4565b600460008473ffffffffffffffffffffffffffffffffffffffff1673ffffffffffffffffffffffffffffffffffffffff16815260200190815260200160002081905550808273ffffffffffffffffffffffffffffffffffffffff16600073ffffffffffffffffffffffffffffffffffffffff167fddf252ad1be2c89b69c2b068fc378daa952ba7f163c4a11628f55a4df523b3ef60405160405180910390a45050565b6006805490506007600083815260200190815260200160002081905550600681908060018154018082558091505060019003906000526020600020016000909190919091505550565b600860008373ffffffffffffffffffffffffffffffffffffffff1673ffffffffffffffffffffffffffffffffffffffff168152602001908152602001600020805490506009600083815260200190815260200160002081905550600860008373ffffffffffffffffffffffffffffffffffffffff1673ffffffffffffffffffffffffffffffffffffffff1681526020019081526020016000208190806001815401808255809150506001900390600052602060002001600090919091909150555050565b6000806003600084815260200190815260200160002060009054906101000a900473ffffffffffffffffffffffffffffffffffffffff169050600073ffffffffffffffffffffffffffffffffffffffff168173ffffffffffffffffffffffffffffffffffffffff161415915050919050565b828054610ea490611447565b90600052602060002090601f016020900481019282610ec65760008555610f0d565b82601f10610edf57805160ff1916838001178555610f0d565b82800160010185558215610f0d579182015b82811115610f0c578251825591602001919060010190610ef1565b5b509050610f1a9190610f1e565b5090565b5b80821115610f37576000816000905550600101610f1f565b5090565b6000604051905090565b600080fd5b600080fd5b60007fffffffff0000000000000000000000000000000000000000000000000000000082169050919050565b610f8481610f4f565b8114610f8f57600080fd5b50565b600081359050610fa181610f7b565b92915050565b600060208284031215610fbd57610fbc610f45565b5b6000610fcb84828501610f92565b91505092915050565b60008115159050919050565b610fe981610fd4565b82525050565b60006020820190506110046000830184610fe0565b92915050565b600081519050919050565b600082825260208201905092915050565b60005b83811015611044578082015181840152602081019050611029565b83811115611053576000848401525b50505050565b6000601f19601f8301169050919050565b60006110758261100a565b61107f8185611015565b935061108f818560208601611026565b61109881611059565b840191505092915050565b600060208201905081810360008301526110bd818461106a565b905092915050565b6000819050919050565b6110d8816110c5565b82525050565b60006020820190506110f360008301846110cf565b92915050565b600073ffffffffffffffffffffffffffffffffffffffff82169050919050565b6000611124826110f9565b9050919050565b61113481611119565b811461113f57600080fd5b50565b6000813590506111518161112b565b92915050565b611160816110c5565b811461116b57600080fd5b50565b60008135905061117d81611157565b92915050565b60008060006060848603121561119c5761119b610f45565b5b60006111aa86828701611142565b93505060206111bb86828701611142565b92505060406111cc8682870161116e565b9150509250925092565b600080604083850312156111ed576111ec610f45565b5b60006111fb85828601611142565b925050602061120c8582860161116e565b9150509250929050565b60006020828403121561122c5761122b610f45565b5b600061123a8482850161116e565b91505092915050565b61124c81611119565b82525050565b60006020820190506112676000830184611243565b92915050565b60006020828403121561128357611282610f45565b5b600061129184828501611142565b91505092915050565b600080fd5b600080fd5b7f4e487b7100000000000000000000000000000000000000000000000000000000600052604160045260246000fd5b6112dc82611059565b810181811067ffffffffffffffff821117156112fb576112fa6112a4565b5b80604052505050565b600061130e610f3b565b905061131a82826112d3565b919050565b600067ffffffffffffffff82111561133a576113396112a4565b5b61134382611059565b9050602081019050919050565b82818337600083830152505050565b600061137261136d8461131f565b611304565b90508281526020810184848401111561138e5761138d61129f565b5b611399848285611350565b509392505050565b600082601f8301126113b6576113b561129a565b5b81356113c684826020860161135f565b91505092915050565b6000602082840312156113e5576113e4610f45565b5b600082013567ffffffffffffffff81111561140357611402610f4a565b5b61140f848285016113a1565b91505092915050565b7f4e487b7100000000000000000000000000000000000000000000000000000000600052602260045260246000fd5b6000600282049050600182168061145f57607f821691505b6020821081141561147357611472611418565b5b50919050565b7f6f776e657220696e646578206973206f7574206f6620626f756e640000000000600082015250565b60006114af601b83611015565b91506114ba82611479565b602082019050919050565b600060208201905081810360008301526114de816114a2565b9050919050565b7f4e487b7100000000000000000000000000000000000000000000000000000000600052603260045260246000fd5b7f676c6f626c6520696e646578206973206f7574206f6620626f756e6400000000600082015250565b600061154a601c83611015565b915061155582611514565b602082019050919050565b600060208201905081810360008301526115798161153d565b9050919050565b7f4572726f72202d20746f6b656e20646f6573206e6f7420657869737421000000600082015250565b60006115b6601d83611015565b91506115c182611580565b602082019050919050565b600060208201905081810360008301526115e5816115a9565b9050919050565b7f4572726f72202d206164647265737320697320696e76616c6964206f72207a6560008201527f726f000000000000000000000000000000000000000000000000000000000000602082015250565b6000611648602283611015565b9150611653826115ec565b604082019050919050565b600060208201905081810360008301526116778161163b565b9050919050565b600081905092915050565b60006116948261100a565b61169e818561167e565b93506116ae818560208601611026565b80840191505092915050565b60006116c68284611689565b915081905092915050565b7f4572726f72202d206b727970746f4269726420616c726561647920657869737460008201527f7321000000000000000000000000000000000000000000000000000000000000602082015250565b600061172d602283611015565b9150611738826116d1565b604082019050919050565b6000602082019050818103600083015261175c81611720565b9050919050565b7f4e487b7100000000000000000000000000000000000000000000000000000000600052601160045260246000fd5b600061179d826110c5565b91506117a8836110c5565b9250828210156117bb576117ba611763565b5b828203905092915050565b7f4572726f72202d20616464726573732063616e206e6f74206265207a65726f00600082015250565b60006117fc601f83611015565b9150611807826117c6565b602082019050919050565b6000602082019050818103600083015261182b816117ef565b9050919050565b7f4572726f72202d20796f7520646f206e6f74206f776e65642074686520746f6b60008201527f656e000000000000000000000000000000000000000000000000000000000000602082015250565b600061188e602283611015565b915061189982611832565b604082019050919050565b600060208201905081810360008301526118bd81611881565b9050919050565b60006118cf826110c5565b91506118da836110c5565b9250827fffffffffffffffffffffffffffffffffffffffffffffffffffffffffffffffff0382111561190f5761190e611763565b5b828201905092915050565b7f4552433732313a206d696e74696e6720746f207a65726f206164647265737300600082015250565b6000611950601f83611015565b915061195b8261191a565b602082019050919050565b6000602082019050818103600083015261197f81611943565b9050919050565b7f4552433732313a20746f6b656e2073686f756c64206e6f7420616c726561647960008201527f2065786973740000000000000000000000000000000000000000000000000000602082015250565b60006119e2602683611015565b91506119ed82611986565b604082019050919050565b60006020820190508181036000830152611a11816119d5565b905091905056fea264697066735822122037336920e1bc7bc8bffdc4c58ad140f29fb69e9578917b22733ff621bfc958ea64736f6c634300080b0033",
  "immutableReferences": {},
  "source": "// SPDX-License-Identifier: MIT\r\npragma solidity ^0.8.0;\r\n\r\nimport './ERC721Connector.sol';\r\n\r\ncontract KryptoBird is ERC721Connector { \r\n\r\n   //create a string array to store NFTS already minted\r\n   string[] public kryptoBirds; \r\n\r\n   //track the minted NFTs\r\n   mapping(string => bool) _kryptoBirdsExists;\r\n\r\n    //mint function to mint ntfs\r\n    function mint(string memory _kryptoBird) public {\r\n       \r\n        //check if a kryptoBird exists or not\r\n        require(!_kryptoBirdsExists[_kryptoBird], \"Error - kryptoBird already exists!\");\r\n        \r\n        //push the NFT to the string array\r\n        kryptoBirds.push(_kryptoBird);\r\n        uint256 _id = kryptoBirds.length - 1;\r\n\r\n        //call the _mint function\r\n        _mint(msg.sender, _id);\r\n\r\n        //keep track of the minted NFTs\r\n        _kryptoBirdsExists[_kryptoBird] = true;\r\n    }\r\n\r\n    constructor() ERC721Connector('KryptoBirdz', 'KBIRDZ') {\r\n    }\r\n}",
  "sourcePath": "C:\\Users\\Haier\\Documents\\Blockchain\\nft-marketplace-starter-kit\\src\\contracts\\KryptoBirdz.sol",
  "compiler": {
    "name": "solc",
    "version": "0.8.11+commit.d7f03943.Emscripten.clang"
  },
  "schemaVersion": "3.4.4",
  "updatedAt": "2022-02-14T14:53:34.733Z",
  "networkType": "ethereum",
  "devdoc": {
    "kind": "dev",
    "methods": {
      "balanceOf(address)": {
        "details": "NFTs assigned to the zero address are considered invalid, and this  function throws for queries about the zero address.",
        "params": {
          "_owner": "An address for whom to query the balance"
        },
        "returns": {
          "_0": "The number of NFTs owned by `_owner`, possibly zero"
        }
      },
      "ownerOf(uint256)": {
        "details": "NFTs assigned to zero address are considered invalid, and queries  about them do throw.",
        "params": {
          "_tokenId": "The identifier for an NFT"
        },
        "returns": {
          "_0": "The address of the owner of the NFT"
        }
      },
      "supportsInterface(bytes4)": {
        "details": "Interface identification is specified in ERC-165. This function  uses less than 30,000 gas.",
        "params": {
          "interfaceID": "The interface identifier, as specified in ERC-165"
        },
        "returns": {
          "_0": "`true` if the contract implements `interfaceID` and  `interfaceID` is not 0xffffffff, `false` otherwise"
        }
      }
    },
    "version": 1
  },
  "userdoc": {
    "kind": "user",
    "methods": {
      "balanceOf(address)": {
        "notice": "Count all NFTs assigned to an owner"
      },
      "ownerOf(uint256)": {
        "notice": "Find the owner of an NFT"
      },
      "supportsInterface(bytes4)": {
        "notice": "Query if a contract implements an interface"
      }
    },
    "version": 1
  }
}