{
  "contractName": "KryptoBird",
  "abi": [
    {
      "inputs": [],
      "stateMutability": "nonpayable",
      "type": "constructor"
    },
    {
      "anonymous": false,
      "inputs": [
        {
          "indexed": true,
          "internalType": "address",
          "name": "from",
          "type": "address"
        },
        {
          "indexed": true,
          "internalType": "address",
          "name": "to",
          "type": "address"
        },
        {
          "indexed": true,
          "internalType": "uint256",
          "name": "tokenId",
          "type": "uint256"
        }
      ],
      "name": "Transfer",
      "type": "event"
    },
    {
      "inputs": [
        {
          "internalType": "address",
          "name": "_owner",
          "type": "address"
        }
      ],
      "name": "balanceOf",
      "outputs": [
        {
          "internalType": "uint256",
          "name": "",
          "type": "uint256"
        }
      ],
      "stateMutability": "view",
      "type": "function",
      "constant": true
    },
    {
      "inputs": [
        {
          "internalType": "uint256",
          "name": "",
          "type": "uint256"
        }
      ],
      "name": "kryptoBirds",
      "outputs": [
        {
          "internalType": "string",
          "name": "",
          "type": "string"
        }
      ],
      "stateMutability": "view",
      "type": "function",
      "constant": true
    },
    {
      "inputs": [],
      "name": "name",
      "outputs": [
        {
          "internalType": "string",
          "name": "",
          "type": "string"
        }
      ],
      "stateMutability": "view",
      "type": "function",
      "constant": true
    },
    {
      "inputs": [
        {
          "internalType": "uint256",
          "name": "_tokenId",
          "type": "uint256"
        }
      ],
      "name": "ownerOf",
      "outputs": [
        {
          "internalType": "address",
          "name": "",
          "type": "address"
        }
      ],
      "stateMutability": "view",
      "type": "function",
      "constant": true
    },
    {
      "inputs": [],
      "name": "symbol",
      "outputs": [
        {
          "internalType": "string",
          "name": "",
          "type": "string"
        }
      ],
      "stateMutability": "view",
      "type": "function",
      "constant": true
    },
    {
      "inputs": [],
      "name": "totalSupply",
      "outputs": [
        {
          "internalType": "uint256",
          "name": "",
          "type": "uint256"
        }
      ],
      "stateMutability": "view",
      "type": "function",
      "constant": true
    },
    {
      "inputs": [
        {
          "internalType": "string",
          "name": "_kryptoBird",
          "type": "string"
        }
      ],
      "name": "mint",
      "outputs": [],
      "stateMutability": "nonpayable",
      "type": "function"
    }
  ],
  "bytecode": "0x60806040523480156200001157600080fd5b506040518060400160405280600b81526020017f4b727970746f426972647a0000000000000000000000000000000000000000008152506040518060400160405280600681526020017f4b424952445a00000000000000000000000000000000000000000000000000008152508181816000908051906020019062000098929190620000bc565b508060019080519060200190620000b1929190620000bc565b5050505050620001d1565b828054620000ca906200019b565b90600052602060002090601f016020900481019282620000ee57600085556200013a565b82601f106200010957805160ff19168380011785556200013a565b828001600101855582156200013a579182015b82811115620001395782518255916020019190600101906200011c565b5b5090506200014991906200014d565b5090565b5b80821115620001685760008160009055506001016200014e565b5090565b7f4e487b7100000000000000000000000000000000000000000000000000000000600052602260045260246000fd5b60006002820490506001821680620001b457607f821691505b60208210811415620001cb57620001ca6200016c565b5b50919050565b6110ea80620001e16000396000f3fe608060405234801561001057600080fd5b506004361061007d5760003560e01c806370a082311161005b57806370a08231146100ee57806395d89b411461011e578063b20dac5f1461013c578063d85d3d271461016c5761007d565b806306fdde031461008257806318160ddd146100a05780636352211e146100be575b600080fd5b61008a610188565b60405161009791906109c3565b60405180910390f35b6100a861021a565b6040516100b591906109fe565b60405180910390f35b6100d860048036038101906100d39190610a59565b610227565b6040516100e59190610ac7565b60405180910390f35b61010860048036038101906101039190610b0e565b6102d9565b60405161011591906109fe565b60405180910390f35b610126610397565b60405161013391906109c3565b60405180910390f35b61015660048036038101906101519190610a59565b610429565b60405161016391906109c3565b60405180910390f35b61018660048036038101906101819190610c70565b6104d5565b005b60606000805461019790610ce8565b80601f01602080910402602001604051908101604052809291908181526020018280546101c390610ce8565b80156102105780601f106101e557610100808354040283529160200191610210565b820191906000526020600020905b8154815290600101906020018083116101f357829003601f168201915b5050505050905090565b6000600480549050905090565b6000806002600084815260200190815260200160002060009054906101000a900473ffffffffffffffffffffffffffffffffffffffff169050600073ffffffffffffffffffffffffffffffffffffffff168173ffffffffffffffffffffffffffffffffffffffff1614156102d0576040517f08c379a00000000000000000000000000000000000000000000000000000000081526004016102c790610d66565b60405180910390fd5b80915050919050565b60008073ffffffffffffffffffffffffffffffffffffffff168273ffffffffffffffffffffffffffffffffffffffff16141561034a576040517f08c379a000000000000000000000000000000000000000000000000000000000815260040161034190610df8565b60405180910390fd5b6000600360008473ffffffffffffffffffffffffffffffffffffffff1673ffffffffffffffffffffffffffffffffffffffff16815260200190815260200160002054905080915050919050565b6060600180546103a690610ce8565b80601f01602080910402602001604051908101604052809291908181526020018280546103d290610ce8565b801561041f5780601f106103f45761010080835404028352916020019161041f565b820191906000526020600020905b81548152906001019060200180831161040257829003601f168201915b5050505050905090565b6008818154811061043957600080fd5b90600052602060002001600091509050805461045490610ce8565b80601f016020809104026020016040519081016040528092919081815260200182805461048090610ce8565b80156104cd5780601f106104a2576101008083540402835291602001916104cd565b820191906000526020600020905b8154815290600101906020018083116104b057829003601f168201915b505050505081565b6009816040516104e59190610e54565b908152602001604051809103902060009054906101000a900460ff1615610541576040517f08c379a000000000000000000000000000000000000000000000000000000000815260040161053890610edd565b60405180910390fd5b60088190806001815401808255809150506001900390600052602060002001600090919091909150908051906020019061057c929190610887565b50600060016008805490506105919190610f2c565b905061059d33826105d8565b60016009836040516105af9190610e54565b908152602001604051809103902060006101000a81548160ff0219169083151502179055505050565b6105e282826105ef565b6105eb816107e9565b5050565b600073ffffffffffffffffffffffffffffffffffffffff168273ffffffffffffffffffffffffffffffffffffffff16141561065f576040517f08c379a000000000000000000000000000000000000000000000000000000000815260040161065690610fac565b60405180910390fd5b61066881610815565b156106a8576040517f08c379a000000000000000000000000000000000000000000000000000000000815260040161069f9061103e565b60405180910390fd5b816002600083815260200190815260200160002060006101000a81548173ffffffffffffffffffffffffffffffffffffffff021916908373ffffffffffffffffffffffffffffffffffffffff1602179055506001600360008473ffffffffffffffffffffffffffffffffffffffff1673ffffffffffffffffffffffffffffffffffffffff16815260200190815260200160002054610746919061105e565b600360008473ffffffffffffffffffffffffffffffffffffffff1673ffffffffffffffffffffffffffffffffffffffff16815260200190815260200160002081905550808273ffffffffffffffffffffffffffffffffffffffff16600073ffffffffffffffffffffffffffffffffffffffff167fddf252ad1be2c89b69c2b068fc378daa952ba7f163c4a11628f55a4df523b3ef60405160405180910390a45050565b600481908060018154018082558091505060019003906000526020600020016000909190919091505550565b6000806002600084815260200190815260200160002060009054906101000a900473ffffffffffffffffffffffffffffffffffffffff169050600073ffffffffffffffffffffffffffffffffffffffff168173ffffffffffffffffffffffffffffffffffffffff161415915050919050565b82805461089390610ce8565b90600052602060002090601f0160209004810192826108b557600085556108fc565b82601f106108ce57805160ff19168380011785556108fc565b828001600101855582156108fc579182015b828111156108fb5782518255916020019190600101906108e0565b5b509050610909919061090d565b5090565b5b8082111561092657600081600090555060010161090e565b5090565b600081519050919050565b600082825260208201905092915050565b60005b83811015610964578082015181840152602081019050610949565b83811115610973576000848401525b50505050565b6000601f19601f8301169050919050565b60006109958261092a565b61099f8185610935565b93506109af818560208601610946565b6109b881610979565b840191505092915050565b600060208201905081810360008301526109dd818461098a565b905092915050565b6000819050919050565b6109f8816109e5565b82525050565b6000602082019050610a1360008301846109ef565b92915050565b6000604051905090565b600080fd5b600080fd5b610a36816109e5565b8114610a4157600080fd5b50565b600081359050610a5381610a2d565b92915050565b600060208284031215610a6f57610a6e610a23565b5b6000610a7d84828501610a44565b91505092915050565b600073ffffffffffffffffffffffffffffffffffffffff82169050919050565b6000610ab182610a86565b9050919050565b610ac181610aa6565b82525050565b6000602082019050610adc6000830184610ab8565b92915050565b610aeb81610aa6565b8114610af657600080fd5b50565b600081359050610b0881610ae2565b92915050565b600060208284031215610b2457610b23610a23565b5b6000610b3284828501610af9565b91505092915050565b600080fd5b600080fd5b7f4e487b7100000000000000000000000000000000000000000000000000000000600052604160045260246000fd5b610b7d82610979565b810181811067ffffffffffffffff82111715610b9c57610b9b610b45565b5b80604052505050565b6000610baf610a19565b9050610bbb8282610b74565b919050565b600067ffffffffffffffff821115610bdb57610bda610b45565b5b610be482610979565b9050602081019050919050565b82818337600083830152505050565b6000610c13610c0e84610bc0565b610ba5565b905082815260208101848484011115610c2f57610c2e610b40565b5b610c3a848285610bf1565b509392505050565b600082601f830112610c5757610c56610b3b565b5b8135610c67848260208601610c00565b91505092915050565b600060208284031215610c8657610c85610a23565b5b600082013567ffffffffffffffff811115610ca457610ca3610a28565b5b610cb084828501610c42565b91505092915050565b7f4e487b7100000000000000000000000000000000000000000000000000000000600052602260045260246000fd5b60006002820490506001821680610d0057607f821691505b60208210811415610d1457610d13610cb9565b5b50919050565b7f4572726f72202d20746f6b656e20646f6573206e6f7420657869737421000000600082015250565b6000610d50601d83610935565b9150610d5b82610d1a565b602082019050919050565b60006020820190508181036000830152610d7f81610d43565b9050919050565b7f4572726f72202d206164647265737320697320696e76616c6964206f72207a6560008201527f726f000000000000000000000000000000000000000000000000000000000000602082015250565b6000610de2602283610935565b9150610ded82610d86565b604082019050919050565b60006020820190508181036000830152610e1181610dd5565b9050919050565b600081905092915050565b6000610e2e8261092a565b610e388185610e18565b9350610e48818560208601610946565b80840191505092915050565b6000610e608284610e23565b915081905092915050565b7f4572726f72202d206b727970746f4269726420616c726561647920657869737460008201527f7321000000000000000000000000000000000000000000000000000000000000602082015250565b6000610ec7602283610935565b9150610ed282610e6b565b604082019050919050565b60006020820190508181036000830152610ef681610eba565b9050919050565b7f4e487b7100000000000000000000000000000000000000000000000000000000600052601160045260246000fd5b6000610f37826109e5565b9150610f42836109e5565b925082821015610f5557610f54610efd565b5b828203905092915050565b7f4552433732313a206d696e74696e6720746f207a65726f206164647265737300600082015250565b6000610f96601f83610935565b9150610fa182610f60565b602082019050919050565b60006020820190508181036000830152610fc581610f89565b9050919050565b7f4552433732313a20746f6b656e2073686f756c64206e6f7420616c726561647960008201527f2065786973740000000000000000000000000000000000000000000000000000602082015250565b6000611028602683610935565b915061103382610fcc565b604082019050919050565b600060208201905081810360008301526110578161101b565b9050919050565b6000611069826109e5565b9150611074836109e5565b9250827fffffffffffffffffffffffffffffffffffffffffffffffffffffffffffffffff038211156110a9576110a8610efd565b5b82820190509291505056fea2646970667358221220d93ab85751fcfd7ebd1fbbafb9e08db53f8a4089ae6a0ed48a167b9a114eaa2864736f6c634300080b0033",
  "immutableReferences": {},
  "source": "// SPDX-License-Identifier: MIT\r\npragma solidity ^0.8.0;\r\n\r\nimport './ERC721Connector.sol';\r\n\r\ncontract KryptoBird is ERC721Connector { \r\n\r\n   //create a string array to store NFTS already minted\r\n   string[] public kryptoBirds; \r\n\r\n   //track the minted NFTs\r\n   mapping(string => bool) _kryptoBirdsExists;\r\n\r\n    //mint function to mint ntfs\r\n    function mint(string memory _kryptoBird) public {\r\n       \r\n        //check if a kryptoBird exists or not\r\n        require(!_kryptoBirdsExists[_kryptoBird], \"Error - kryptoBird already exists!\");\r\n        \r\n        //push the NFT to the string array\r\n        kryptoBirds.push(_kryptoBird);\r\n        uint256 _id = kryptoBirds.length - 1;\r\n\r\n        //call the _mint function\r\n        _mint(msg.sender, _id);\r\n\r\n        //keep track of the minted NFTs\r\n        _kryptoBirdsExists[_kryptoBird] = true;\r\n    }\r\n\r\n    constructor() ERC721Connector('KryptoBirdz', 'KBIRDZ') {\r\n    }\r\n}",
  "sourcePath": "C:\\Users\\Haier\\Documents\\Blockchain\\nft-marketplace-starter-kit\\src\\contracts\\KryptoBirdz.sol",
  "compiler": {
    "name": "solc",
    "version": "0.8.11+commit.d7f03943.Emscripten.clang"
  },
  "schemaVersion": "3.4.4",
  "updatedAt": "2022-02-03T16:22:46.578Z",
  "networkType": "ethereum",
  "devdoc": {
    "kind": "dev",
    "methods": {
      "balanceOf(address)": {
        "details": "NFTs assigned to the zero address are considered invalid, and this  function throws for queries about the zero address.",
        "params": {
          "_owner": "An address for whom to query the balance"
        },
        "returns": {
          "_0": "The number of NFTs owned by `_owner`, possibly zero"
        }
      },
      "ownerOf(uint256)": {
        "details": "NFTs assigned to zero address are considered invalid, and queries  about them do throw.",
        "params": {
          "_tokenId": "The identifier for an NFT"
        },
        "returns": {
          "_0": "The address of the owner of the NFT"
        }
      },
      "totalSupply()": {
        "returns": {
          "_0": "A count of valid NFTs tracked by this contract, where each one of  them has an assigned and queryable owner not equal to the zero address"
        }
      }
    },
    "version": 1
  },
  "userdoc": {
    "kind": "user",
    "methods": {
      "balanceOf(address)": {
        "notice": "Count all NFTs assigned to an owner"
      },
      "ownerOf(uint256)": {
        "notice": "Find the owner of an NFT"
      },
      "totalSupply()": {
        "notice": "Count NFTs tracked by this contract"
      }
    },
    "version": 1
  }
}