{
  "contractName": "Kryptobird",
  "abi": [
    {
      "inputs": [],
      "stateMutability": "nonpayable",
      "type": "constructor"
    },
    {
      "anonymous": false,
      "inputs": [
        {
          "indexed": true,
          "internalType": "address",
          "name": "from",
          "type": "address"
        },
        {
          "indexed": true,
          "internalType": "address",
          "name": "to",
          "type": "address"
        },
        {
          "indexed": true,
          "internalType": "uint256",
          "name": "tokenId",
          "type": "uint256"
        }
      ],
      "name": "Transfer",
      "type": "event"
    },
    {
      "inputs": [
        {
          "internalType": "uint256",
          "name": "",
          "type": "uint256"
        }
      ],
      "name": "kryptoBirds",
      "outputs": [
        {
          "internalType": "string",
          "name": "",
          "type": "string"
        }
      ],
      "stateMutability": "view",
      "type": "function",
      "constant": true
    },
    {
      "inputs": [],
      "name": "name",
      "outputs": [
        {
          "internalType": "string",
          "name": "",
          "type": "string"
        }
      ],
      "stateMutability": "view",
      "type": "function",
      "constant": true
    },
    {
      "inputs": [],
      "name": "symbol",
      "outputs": [
        {
          "internalType": "string",
          "name": "",
          "type": "string"
        }
      ],
      "stateMutability": "view",
      "type": "function",
      "constant": true
    },
    {
      "inputs": [
        {
          "internalType": "string",
          "name": "_kryptoBird",
          "type": "string"
        }
      ],
      "name": "mint",
      "outputs": [],
      "stateMutability": "nonpayable",
      "type": "function"
    }
  ],
  "bytecode": "0x60806040523480156200001157600080fd5b506040518060400160405280600b81526020017f4b727970746f426972647a0000000000000000000000000000000000000000008152506040518060400160405280600681526020017f4b424952445a00000000000000000000000000000000000000000000000000008152508181816000908051906020019062000098929190620000bc565b508060019080519060200190620000b1929190620000bc565b5050505050620001d1565b828054620000ca906200019b565b90600052602060002090601f016020900481019282620000ee57600085556200013a565b82601f106200010957805160ff19168380011785556200013a565b828001600101855582156200013a579182015b82811115620001395782518255916020019190600101906200011c565b5b5090506200014991906200014d565b5090565b5b80821115620001685760008160009055506001016200014e565b5090565b7f4e487b7100000000000000000000000000000000000000000000000000000000600052602260045260246000fd5b60006002820490506001821680620001b457607f821691505b60208210811415620001cb57620001ca6200016c565b5b50919050565b610c9e80620001e16000396000f3fe608060405234801561001057600080fd5b506004361061004c5760003560e01c806306fdde031461005157806395d89b411461006f578063b20dac5f1461008d578063d85d3d27146100bd575b600080fd5b6100596100d9565b6040516100669190610754565b60405180910390f35b61007761016b565b6040516100849190610754565b60405180910390f35b6100a760048036038101906100a291906107c0565b6101fd565b6040516100b49190610754565b60405180910390f35b6100d760048036038101906100d29190610922565b6102a9565b005b6060600080546100e89061099a565b80601f01602080910402602001604051908101604052809291908181526020018280546101149061099a565b80156101615780601f1061013657610100808354040283529160200191610161565b820191906000526020600020905b81548152906001019060200180831161014457829003601f168201915b5050505050905090565b60606001805461017a9061099a565b80601f01602080910402602001604051908101604052809291908181526020018280546101a69061099a565b80156101f35780601f106101c8576101008083540402835291602001916101f3565b820191906000526020600020905b8154815290600101906020018083116101d657829003601f168201915b5050505050905090565b6004818154811061020d57600080fd5b9060005260206000200160009150905080546102289061099a565b80601f01602080910402602001604051908101604052809291908181526020018280546102549061099a565b80156102a15780601f10610276576101008083540402835291602001916102a1565b820191906000526020600020905b81548152906001019060200180831161028457829003601f168201915b505050505081565b6005816040516102b99190610a08565b908152602001604051809103902060009054906101000a900460ff1615610315576040517f08c379a000000000000000000000000000000000000000000000000000000000815260040161030c90610a91565b60405180910390fd5b600481908060018154018082558091505060019003906000526020600020016000909190919091509080519060200190610350929190610618565b50600060016004805490506103659190610ae0565b905061037133826103ac565b60016005836040516103839190610a08565b908152602001604051809103902060006101000a81548160ff0219169083151502179055505050565b600073ffffffffffffffffffffffffffffffffffffffff168273ffffffffffffffffffffffffffffffffffffffff16141561041c576040517f08c379a000000000000000000000000000000000000000000000000000000000815260040161041390610b60565b60405180910390fd5b610425816105a6565b15610465576040517f08c379a000000000000000000000000000000000000000000000000000000000815260040161045c90610bf2565b60405180910390fd5b816002600083815260200190815260200160002060006101000a81548173ffffffffffffffffffffffffffffffffffffffff021916908373ffffffffffffffffffffffffffffffffffffffff1602179055506001600360008473ffffffffffffffffffffffffffffffffffffffff1673ffffffffffffffffffffffffffffffffffffffff168152602001908152602001600020546105039190610c12565b600360008473ffffffffffffffffffffffffffffffffffffffff1673ffffffffffffffffffffffffffffffffffffffff16815260200190815260200160002081905550808273ffffffffffffffffffffffffffffffffffffffff16600073ffffffffffffffffffffffffffffffffffffffff167fddf252ad1be2c89b69c2b068fc378daa952ba7f163c4a11628f55a4df523b3ef60405160405180910390a45050565b6000806002600084815260200190815260200160002060009054906101000a900473ffffffffffffffffffffffffffffffffffffffff169050600073ffffffffffffffffffffffffffffffffffffffff168173ffffffffffffffffffffffffffffffffffffffff161415915050919050565b8280546106249061099a565b90600052602060002090601f016020900481019282610646576000855561068d565b82601f1061065f57805160ff191683800117855561068d565b8280016001018555821561068d579182015b8281111561068c578251825591602001919060010190610671565b5b50905061069a919061069e565b5090565b5b808211156106b757600081600090555060010161069f565b5090565b600081519050919050565b600082825260208201905092915050565b60005b838110156106f55780820151818401526020810190506106da565b83811115610704576000848401525b50505050565b6000601f19601f8301169050919050565b6000610726826106bb565b61073081856106c6565b93506107408185602086016106d7565b6107498161070a565b840191505092915050565b6000602082019050818103600083015261076e818461071b565b905092915050565b6000604051905090565b600080fd5b600080fd5b6000819050919050565b61079d8161078a565b81146107a857600080fd5b50565b6000813590506107ba81610794565b92915050565b6000602082840312156107d6576107d5610780565b5b60006107e4848285016107ab565b91505092915050565b600080fd5b600080fd5b7f4e487b7100000000000000000000000000000000000000000000000000000000600052604160045260246000fd5b61082f8261070a565b810181811067ffffffffffffffff8211171561084e5761084d6107f7565b5b80604052505050565b6000610861610776565b905061086d8282610826565b919050565b600067ffffffffffffffff82111561088d5761088c6107f7565b5b6108968261070a565b9050602081019050919050565b82818337600083830152505050565b60006108c56108c084610872565b610857565b9050828152602081018484840111156108e1576108e06107f2565b5b6108ec8482856108a3565b509392505050565b600082601f830112610909576109086107ed565b5b81356109198482602086016108b2565b91505092915050565b60006020828403121561093857610937610780565b5b600082013567ffffffffffffffff81111561095657610955610785565b5b610962848285016108f4565b91505092915050565b7f4e487b7100000000000000000000000000000000000000000000000000000000600052602260045260246000fd5b600060028204905060018216806109b257607f821691505b602082108114156109c6576109c561096b565b5b50919050565b600081905092915050565b60006109e2826106bb565b6109ec81856109cc565b93506109fc8185602086016106d7565b80840191505092915050565b6000610a1482846109d7565b915081905092915050565b7f4572726f72202d206b727970746f4269726420616c726561647920657869737460008201527f7321000000000000000000000000000000000000000000000000000000000000602082015250565b6000610a7b6022836106c6565b9150610a8682610a1f565b604082019050919050565b60006020820190508181036000830152610aaa81610a6e565b9050919050565b7f4e487b7100000000000000000000000000000000000000000000000000000000600052601160045260246000fd5b6000610aeb8261078a565b9150610af68361078a565b925082821015610b0957610b08610ab1565b5b828203905092915050565b7f4552433732313a206d696e74696e6720746f207a65726f206164647265737300600082015250565b6000610b4a601f836106c6565b9150610b5582610b14565b602082019050919050565b60006020820190508181036000830152610b7981610b3d565b9050919050565b7f4552433732313a20746f6b656e2073686f756c64206e6f7420616c726561647960008201527f2065786973740000000000000000000000000000000000000000000000000000602082015250565b6000610bdc6026836106c6565b9150610be782610b80565b604082019050919050565b60006020820190508181036000830152610c0b81610bcf565b9050919050565b6000610c1d8261078a565b9150610c288361078a565b9250827fffffffffffffffffffffffffffffffffffffffffffffffffffffffffffffffff03821115610c5d57610c5c610ab1565b5b82820190509291505056fea264697066735822122063ca60a5c4b8d6464e75e6263fb6996e45f5896fd0cc1cb28b4e254c6e4729cb64736f6c634300080b0033",
  "immutableReferences": {},
  "source": "// SPDX-License-Identifier: MIT\r\npragma solidity ^0.8.0;\r\n\r\nimport './ERC721Connector.sol';\r\n\r\ncontract Kryptobird is ERC721Connector { \r\n\r\n   //create a string array to store NFTS already minted\r\n   string[] public kryptoBirds; \r\n\r\n   //track the minted NFTs\r\n   mapping(string => bool) _kryptoBirdsExists;\r\n\r\n    //mint function to mint ntfs\r\n    function mint(string memory _kryptoBird) public {\r\n       \r\n        //check if a kryptoBird exists or not\r\n        require(!_kryptoBirdsExists[_kryptoBird], \"Error - kryptoBird already exists!\");\r\n        \r\n        //push the NFT to the string array\r\n        kryptoBirds.push(_kryptoBird);\r\n        uint256 _id = kryptoBirds.length - 1;\r\n\r\n        //call the _mint function\r\n        _mint(msg.sender, _id);\r\n\r\n        //keep track of the minted NFTs\r\n        _kryptoBirdsExists[_kryptoBird] = true;\r\n    }\r\n\r\n    constructor() ERC721Connector('KryptoBirdz', 'KBIRDZ') {\r\n    }\r\n}",
  "sourcePath": "C:\\Users\\Haier\\Documents\\Blockchain\\nft-marketplace-starter-kit\\src\\contracts\\KryptoBirdz.sol",
  "compiler": {
    "name": "solc",
    "version": "0.8.11+commit.d7f03943.Emscripten.clang"
  },
  "schemaVersion": "3.4.4",
  "updatedAt": "2022-01-29T22:37:45.470Z",
  "networkType": "ethereum",
  "devdoc": {
    "kind": "dev",
    "methods": {},
    "version": 1
  },
  "userdoc": {
    "kind": "user",
    "methods": {},
    "version": 1
  }
}