{
  "contractName": "KryptoBird",
  "abi": [
    {
      "inputs": [],
      "stateMutability": "nonpayable",
      "type": "constructor"
    },
    {
      "anonymous": false,
      "inputs": [
        {
          "indexed": true,
          "internalType": "address",
          "name": "from",
          "type": "address"
        },
        {
          "indexed": true,
          "internalType": "address",
          "name": "to",
          "type": "address"
        },
        {
          "indexed": true,
          "internalType": "uint256",
          "name": "tokenId",
          "type": "uint256"
        }
      ],
      "name": "Transfer",
      "type": "event"
    },
    {
      "inputs": [
        {
          "internalType": "address",
          "name": "_owner",
          "type": "address"
        }
      ],
      "name": "balanceOf",
      "outputs": [
        {
          "internalType": "uint256",
          "name": "",
          "type": "uint256"
        }
      ],
      "stateMutability": "view",
      "type": "function",
      "constant": true
    },
    {
      "inputs": [
        {
          "internalType": "uint256",
          "name": "",
          "type": "uint256"
        }
      ],
      "name": "kryptoBirds",
      "outputs": [
        {
          "internalType": "string",
          "name": "",
          "type": "string"
        }
      ],
      "stateMutability": "view",
      "type": "function",
      "constant": true
    },
    {
      "inputs": [],
      "name": "name",
      "outputs": [
        {
          "internalType": "string",
          "name": "",
          "type": "string"
        }
      ],
      "stateMutability": "view",
      "type": "function",
      "constant": true
    },
    {
      "inputs": [
        {
          "internalType": "uint256",
          "name": "_tokenId",
          "type": "uint256"
        }
      ],
      "name": "ownerOf",
      "outputs": [
        {
          "internalType": "address",
          "name": "",
          "type": "address"
        }
      ],
      "stateMutability": "view",
      "type": "function",
      "constant": true
    },
    {
      "inputs": [],
      "name": "symbol",
      "outputs": [
        {
          "internalType": "string",
          "name": "",
          "type": "string"
        }
      ],
      "stateMutability": "view",
      "type": "function",
      "constant": true
    },
    {
      "inputs": [
        {
          "internalType": "uint256",
          "name": "_index",
          "type": "uint256"
        }
      ],
      "name": "tokenByIndex",
      "outputs": [
        {
          "internalType": "uint256",
          "name": "",
          "type": "uint256"
        }
      ],
      "stateMutability": "view",
      "type": "function",
      "constant": true
    },
    {
      "inputs": [
        {
          "internalType": "address",
          "name": "_owner",
          "type": "address"
        },
        {
          "internalType": "uint256",
          "name": "_index",
          "type": "uint256"
        }
      ],
      "name": "tokenOfOwnerByIndex",
      "outputs": [
        {
          "internalType": "uint256",
          "name": "",
          "type": "uint256"
        }
      ],
      "stateMutability": "view",
      "type": "function",
      "constant": true
    },
    {
      "inputs": [],
      "name": "totalSupply",
      "outputs": [
        {
          "internalType": "uint256",
          "name": "",
          "type": "uint256"
        }
      ],
      "stateMutability": "view",
      "type": "function",
      "constant": true
    },
    {
      "inputs": [
        {
          "internalType": "address",
          "name": "_from",
          "type": "address"
        },
        {
          "internalType": "address",
          "name": "_to",
          "type": "address"
        },
        {
          "internalType": "uint256",
          "name": "_tokenId",
          "type": "uint256"
        }
      ],
      "name": "transferFrom",
      "outputs": [],
      "stateMutability": "nonpayable",
      "type": "function"
    },
    {
      "inputs": [
        {
          "internalType": "string",
          "name": "_kryptoBird",
          "type": "string"
        }
      ],
      "name": "mint",
      "outputs": [],
      "stateMutability": "nonpayable",
      "type": "function"
    }
  ],
  "bytecode": "0x60806040523480156200001157600080fd5b506040518060400160405280600b81526020017f4b727970746f426972647a0000000000000000000000000000000000000000008152506040518060400160405280600681526020017f4b424952445a00000000000000000000000000000000000000000000000000008152508181816000908051906020019062000098929190620000bc565b508060019080519060200190620000b1929190620000bc565b5050505050620001d1565b828054620000ca906200019b565b90600052602060002090601f016020900481019282620000ee57600085556200013a565b82601f106200010957805160ff19168380011785556200013a565b828001600101855582156200013a579182015b82811115620001395782518255916020019190600101906200011c565b5b5090506200014991906200014d565b5090565b5b80821115620001685760008160009055506001016200014e565b5090565b7f4e487b7100000000000000000000000000000000000000000000000000000000600052602260045260246000fd5b60006002820490506001821680620001b457607f821691505b60208210811415620001cb57620001ca6200016c565b5b50919050565b6118f180620001e16000396000f3fe608060405234801561001057600080fd5b506004361061009e5760003560e01c80636352211e116100665780636352211e1461015b57806370a082311461018b57806395d89b41146101bb578063b20dac5f146101d9578063d85d3d27146102095761009e565b806306fdde03146100a357806318160ddd146100c157806323b872dd146100df5780632f745c59146100fb5780634f6ccce71461012b575b600080fd5b6100ab610225565b6040516100b89190610f32565b60405180910390f35b6100c96102b7565b6040516100d69190610f6d565b60405180910390f35b6100f960048036038101906100f49190611026565b6102c4565b005b61011560048036038101906101109190611079565b6102d4565b6040516101229190610f6d565b60405180910390f35b610145600480360381019061014091906110b9565b610384565b6040516101529190610f6d565b60405180910390f35b610175600480360381019061017091906110b9565b6103f5565b60405161018291906110f5565b60405180910390f35b6101a560048036038101906101a09190611110565b6104a7565b6040516101b29190610f6d565b60405180910390f35b6101c3610565565b6040516101d09190610f32565b60405180910390f35b6101f360048036038101906101ee91906110b9565b6105f7565b6040516102009190610f32565b60405180910390f35b610223600480360381019061021e9190611272565b6106a3565b005b606060008054610234906112ea565b80601f0160208091040260200160405190810160405280929190818152602001828054610260906112ea565b80156102ad5780601f10610282576101008083540402835291602001916102ad565b820191906000526020600020905b81548152906001019060200180831161029057829003601f168201915b5050505050905090565b6000600580549050905090565b6102cf8383836107a6565b505050565b60006102df836104a7565b8210610320576040517f08c379a000000000000000000000000000000000000000000000000000000000815260040161031790611368565b60405180910390fd5b600760008473ffffffffffffffffffffffffffffffffffffffff1673ffffffffffffffffffffffffffffffffffffffff168152602001908152602001600020828154811061037157610370611388565b5b9060005260206000200154905092915050565b600061038e6102b7565b82106103cf576040517f08c379a00000000000000000000000000000000000000000000000000000000081526004016103c690611403565b60405180910390fd5b600582815481106103e3576103e2611388565b5b90600052602060002001549050919050565b6000806002600084815260200190815260200160002060009054906101000a900473ffffffffffffffffffffffffffffffffffffffff169050600073ffffffffffffffffffffffffffffffffffffffff168173ffffffffffffffffffffffffffffffffffffffff16141561049e576040517f08c379a00000000000000000000000000000000000000000000000000000000081526004016104959061146f565b60405180910390fd5b80915050919050565b60008073ffffffffffffffffffffffffffffffffffffffff168273ffffffffffffffffffffffffffffffffffffffff161415610518576040517f08c379a000000000000000000000000000000000000000000000000000000000815260040161050f90611501565b60405180910390fd5b6000600360008473ffffffffffffffffffffffffffffffffffffffff1673ffffffffffffffffffffffffffffffffffffffff16815260200190815260200160002054905080915050919050565b606060018054610574906112ea565b80601f01602080910402602001604051908101604052809291908181526020018280546105a0906112ea565b80156105ed5780601f106105c2576101008083540402835291602001916105ed565b820191906000526020600020905b8154815290600101906020018083116105d057829003601f168201915b5050505050905090565b6009818154811061060757600080fd5b906000526020600020016000915090508054610622906112ea565b80601f016020809104026020016040519081016040528092919081815260200182805461064e906112ea565b801561069b5780601f106106705761010080835404028352916020019161069b565b820191906000526020600020905b81548152906001019060200180831161067e57829003601f168201915b505050505081565b600a816040516106b3919061155d565b908152602001604051809103902060009054906101000a900460ff161561070f576040517f08c379a0000000000000000000000000000000000000000000000000000000008152600401610706906115e6565b60405180910390fd5b60098190806001815401808255809150506001900390600052602060002001600090919091909150908051906020019061074a929190610df6565b506000600160098054905061075f9190611635565b905061076b3382610a5c565b6001600a8360405161077d919061155d565b908152602001604051809103902060006101000a81548160ff0219169083151502179055505050565b600073ffffffffffffffffffffffffffffffffffffffff168273ffffffffffffffffffffffffffffffffffffffff161415610816576040517f08c379a000000000000000000000000000000000000000000000000000000000815260040161080d906116b5565b60405180910390fd5b8273ffffffffffffffffffffffffffffffffffffffff16610836826103f5565b73ffffffffffffffffffffffffffffffffffffffff161461088c576040517f08c379a000000000000000000000000000000000000000000000000000000000815260040161088390611747565b60405180910390fd5b6001600360008573ffffffffffffffffffffffffffffffffffffffff1673ffffffffffffffffffffffffffffffffffffffff168152602001908152602001600020546108d89190611635565b600360008573ffffffffffffffffffffffffffffffffffffffff1673ffffffffffffffffffffffffffffffffffffffff168152602001908152602001600020819055506001600360008473ffffffffffffffffffffffffffffffffffffffff1673ffffffffffffffffffffffffffffffffffffffff168152602001908152602001600020546109679190611767565b600360008473ffffffffffffffffffffffffffffffffffffffff1673ffffffffffffffffffffffffffffffffffffffff16815260200190815260200160002081905550816004600083815260200190815260200160002060006101000a81548173ffffffffffffffffffffffffffffffffffffffff021916908373ffffffffffffffffffffffffffffffffffffffff160217905550808273ffffffffffffffffffffffffffffffffffffffff168473ffffffffffffffffffffffffffffffffffffffff167fddf252ad1be2c89b69c2b068fc378daa952ba7f163c4a11628f55a4df523b3ef60405160405180910390a4505050565b610a668282610a7d565b610a6f81610c77565b610a798282610cc0565b5050565b600073ffffffffffffffffffffffffffffffffffffffff168273ffffffffffffffffffffffffffffffffffffffff161415610aed576040517f08c379a0000000000000000000000000000000000000000000000000000000008152600401610ae490611809565b60405180910390fd5b610af681610d84565b15610b36576040517f08c379a0000000000000000000000000000000000000000000000000000000008152600401610b2d9061189b565b60405180910390fd5b816002600083815260200190815260200160002060006101000a81548173ffffffffffffffffffffffffffffffffffffffff021916908373ffffffffffffffffffffffffffffffffffffffff1602179055506001600360008473ffffffffffffffffffffffffffffffffffffffff1673ffffffffffffffffffffffffffffffffffffffff16815260200190815260200160002054610bd49190611767565b600360008473ffffffffffffffffffffffffffffffffffffffff1673ffffffffffffffffffffffffffffffffffffffff16815260200190815260200160002081905550808273ffffffffffffffffffffffffffffffffffffffff16600073ffffffffffffffffffffffffffffffffffffffff167fddf252ad1be2c89b69c2b068fc378daa952ba7f163c4a11628f55a4df523b3ef60405160405180910390a45050565b6005805490506006600083815260200190815260200160002081905550600581908060018154018082558091505060019003906000526020600020016000909190919091505550565b600760008373ffffffffffffffffffffffffffffffffffffffff1673ffffffffffffffffffffffffffffffffffffffff168152602001908152602001600020805490506008600083815260200190815260200160002081905550600760008373ffffffffffffffffffffffffffffffffffffffff1673ffffffffffffffffffffffffffffffffffffffff1681526020019081526020016000208190806001815401808255809150506001900390600052602060002001600090919091909150555050565b6000806002600084815260200190815260200160002060009054906101000a900473ffffffffffffffffffffffffffffffffffffffff169050600073ffffffffffffffffffffffffffffffffffffffff168173ffffffffffffffffffffffffffffffffffffffff161415915050919050565b828054610e02906112ea565b90600052602060002090601f016020900481019282610e245760008555610e6b565b82601f10610e3d57805160ff1916838001178555610e6b565b82800160010185558215610e6b579182015b82811115610e6a578251825591602001919060010190610e4f565b5b509050610e789190610e7c565b5090565b5b80821115610e95576000816000905550600101610e7d565b5090565b600081519050919050565b600082825260208201905092915050565b60005b83811015610ed3578082015181840152602081019050610eb8565b83811115610ee2576000848401525b50505050565b6000601f19601f8301169050919050565b6000610f0482610e99565b610f0e8185610ea4565b9350610f1e818560208601610eb5565b610f2781610ee8565b840191505092915050565b60006020820190508181036000830152610f4c8184610ef9565b905092915050565b6000819050919050565b610f6781610f54565b82525050565b6000602082019050610f826000830184610f5e565b92915050565b6000604051905090565b600080fd5b600080fd5b600073ffffffffffffffffffffffffffffffffffffffff82169050919050565b6000610fc782610f9c565b9050919050565b610fd781610fbc565b8114610fe257600080fd5b50565b600081359050610ff481610fce565b92915050565b61100381610f54565b811461100e57600080fd5b50565b60008135905061102081610ffa565b92915050565b60008060006060848603121561103f5761103e610f92565b5b600061104d86828701610fe5565b935050602061105e86828701610fe5565b925050604061106f86828701611011565b9150509250925092565b600080604083850312156110905761108f610f92565b5b600061109e85828601610fe5565b92505060206110af85828601611011565b9150509250929050565b6000602082840312156110cf576110ce610f92565b5b60006110dd84828501611011565b91505092915050565b6110ef81610fbc565b82525050565b600060208201905061110a60008301846110e6565b92915050565b60006020828403121561112657611125610f92565b5b600061113484828501610fe5565b91505092915050565b600080fd5b600080fd5b7f4e487b7100000000000000000000000000000000000000000000000000000000600052604160045260246000fd5b61117f82610ee8565b810181811067ffffffffffffffff8211171561119e5761119d611147565b5b80604052505050565b60006111b1610f88565b90506111bd8282611176565b919050565b600067ffffffffffffffff8211156111dd576111dc611147565b5b6111e682610ee8565b9050602081019050919050565b82818337600083830152505050565b6000611215611210846111c2565b6111a7565b90508281526020810184848401111561123157611230611142565b5b61123c8482856111f3565b509392505050565b600082601f8301126112595761125861113d565b5b8135611269848260208601611202565b91505092915050565b60006020828403121561128857611287610f92565b5b600082013567ffffffffffffffff8111156112a6576112a5610f97565b5b6112b284828501611244565b91505092915050565b7f4e487b7100000000000000000000000000000000000000000000000000000000600052602260045260246000fd5b6000600282049050600182168061130257607f821691505b60208210811415611316576113156112bb565b5b50919050565b7f6f776e657220696e646578206973206f7574206f6620626f756e640000000000600082015250565b6000611352601b83610ea4565b915061135d8261131c565b602082019050919050565b6000602082019050818103600083015261138181611345565b9050919050565b7f4e487b7100000000000000000000000000000000000000000000000000000000600052603260045260246000fd5b7f676c6f626c6520696e646578206973206f7574206f6620626f756e6400000000600082015250565b60006113ed601c83610ea4565b91506113f8826113b7565b602082019050919050565b6000602082019050818103600083015261141c816113e0565b9050919050565b7f4572726f72202d20746f6b656e20646f6573206e6f7420657869737421000000600082015250565b6000611459601d83610ea4565b915061146482611423565b602082019050919050565b600060208201905081810360008301526114888161144c565b9050919050565b7f4572726f72202d206164647265737320697320696e76616c6964206f72207a6560008201527f726f000000000000000000000000000000000000000000000000000000000000602082015250565b60006114eb602283610ea4565b91506114f68261148f565b604082019050919050565b6000602082019050818103600083015261151a816114de565b9050919050565b600081905092915050565b600061153782610e99565b6115418185611521565b9350611551818560208601610eb5565b80840191505092915050565b6000611569828461152c565b915081905092915050565b7f4572726f72202d206b727970746f4269726420616c726561647920657869737460008201527f7321000000000000000000000000000000000000000000000000000000000000602082015250565b60006115d0602283610ea4565b91506115db82611574565b604082019050919050565b600060208201905081810360008301526115ff816115c3565b9050919050565b7f4e487b7100000000000000000000000000000000000000000000000000000000600052601160045260246000fd5b600061164082610f54565b915061164b83610f54565b92508282101561165e5761165d611606565b5b828203905092915050565b7f4572726f72202d20616464726573732063616e206e6f74206265207a65726f00600082015250565b600061169f601f83610ea4565b91506116aa82611669565b602082019050919050565b600060208201905081810360008301526116ce81611692565b9050919050565b7f4572726f72202d20796f7520646f206e6f74206f776e65642074686520746f6b60008201527f656e000000000000000000000000000000000000000000000000000000000000602082015250565b6000611731602283610ea4565b915061173c826116d5565b604082019050919050565b6000602082019050818103600083015261176081611724565b9050919050565b600061177282610f54565b915061177d83610f54565b9250827fffffffffffffffffffffffffffffffffffffffffffffffffffffffffffffffff038211156117b2576117b1611606565b5b828201905092915050565b7f4552433732313a206d696e74696e6720746f207a65726f206164647265737300600082015250565b60006117f3601f83610ea4565b91506117fe826117bd565b602082019050919050565b60006020820190508181036000830152611822816117e6565b9050919050565b7f4552433732313a20746f6b656e2073686f756c64206e6f7420616c726561647960008201527f2065786973740000000000000000000000000000000000000000000000000000602082015250565b6000611885602683610ea4565b915061189082611829565b604082019050919050565b600060208201905081810360008301526118b481611878565b905091905056fea264697066735822122018b760f9a44f67f92fb1e50108b8004b11943a698ccf4557a777b74421dd4ce964736f6c634300080b0033",
  "immutableReferences": {},
  "source": "// SPDX-License-Identifier: MIT\r\npragma solidity ^0.8.0;\r\n\r\nimport './ERC721Connector.sol';\r\n\r\ncontract KryptoBird is ERC721Connector { \r\n\r\n   //create a string array to store NFTS already minted\r\n   string[] public kryptoBirds; \r\n\r\n   //track the minted NFTs\r\n   mapping(string => bool) _kryptoBirdsExists;\r\n\r\n    //mint function to mint ntfs\r\n    function mint(string memory _kryptoBird) public {\r\n       \r\n        //check if a kryptoBird exists or not\r\n        require(!_kryptoBirdsExists[_kryptoBird], \"Error - kryptoBird already exists!\");\r\n        \r\n        //push the NFT to the string array\r\n        kryptoBirds.push(_kryptoBird);\r\n        uint256 _id = kryptoBirds.length - 1;\r\n\r\n        //call the _mint function\r\n        _mint(msg.sender, _id);\r\n\r\n        //keep track of the minted NFTs\r\n        _kryptoBirdsExists[_kryptoBird] = true;\r\n    }\r\n\r\n    constructor() ERC721Connector('KryptoBirdz', 'KBIRDZ') {\r\n    }\r\n}",
  "sourcePath": "C:\\Users\\Haier\\Documents\\Blockchain\\nft-marketplace-starter-kit\\src\\contracts\\KryptoBirdz.sol",
  "compiler": {
    "name": "solc",
    "version": "0.8.11+commit.d7f03943.Emscripten.clang"
  },
  "schemaVersion": "3.4.4",
  "updatedAt": "2022-02-06T15:42:49.406Z",
  "networkType": "ethereum",
  "devdoc": {
    "kind": "dev",
    "methods": {
      "balanceOf(address)": {
        "details": "NFTs assigned to the zero address are considered invalid, and this  function throws for queries about the zero address.",
        "params": {
          "_owner": "An address for whom to query the balance"
        },
        "returns": {
          "_0": "The number of NFTs owned by `_owner`, possibly zero"
        }
      },
      "ownerOf(uint256)": {
        "details": "NFTs assigned to zero address are considered invalid, and queries  about them do throw.",
        "params": {
          "_tokenId": "The identifier for an NFT"
        },
        "returns": {
          "_0": "The address of the owner of the NFT"
        }
      }
    },
    "version": 1
  },
  "userdoc": {
    "kind": "user",
    "methods": {
      "balanceOf(address)": {
        "notice": "Count all NFTs assigned to an owner"
      },
      "ownerOf(uint256)": {
        "notice": "Find the owner of an NFT"
      }
    },
    "version": 1
  }
}