{
  "contractName": "Migrations",
  "abi": [
    {
      "inputs": [],
      "name": "last_completed_migration",
      "outputs": [
        {
          "internalType": "uint256",
          "name": "",
          "type": "uint256"
        }
      ],
      "stateMutability": "view",
      "type": "function",
      "constant": true
    },
    {
      "inputs": [],
      "name": "owner",
      "outputs": [
        {
          "internalType": "address",
          "name": "",
          "type": "address"
        }
      ],
      "stateMutability": "view",
      "type": "function",
      "constant": true
    },
    {
      "inputs": [
        {
          "internalType": "uint256",
          "name": "completed",
          "type": "uint256"
        }
      ],
      "name": "setCompleted",
      "outputs": [],
      "stateMutability": "nonpayable",
      "type": "function"
    },
    {
      "inputs": [
        {
          "internalType": "address",
          "name": "new_address",
          "type": "address"
        }
      ],
      "name": "Upgrade",
      "outputs": [],
      "stateMutability": "nonpayable",
      "type": "function"
    }
  ],
  "bytecode": "0x6080604052336000806101000a81548173ffffffffffffffffffffffffffffffffffffffff021916908373ffffffffffffffffffffffffffffffffffffffff16021790555034801561005057600080fd5b506104ab806100606000396000f3fe608060405234801561001057600080fd5b506004361061004c5760003560e01c8063445df0ac146100515780638da5cb5b1461006f578063f78721221461008d578063fdacd576146100a9575b600080fd5b6100596100c5565b60405161006691906102a4565b60405180910390f35b6100776100cb565b6040516100849190610300565b60405180910390f35b6100a760048036038101906100a2919061034c565b6100ef565b005b6100c360048036038101906100be91906103a5565b6101f3565b005b60015481565b60008054906101000a900473ffffffffffffffffffffffffffffffffffffffff1681565b60008054906101000a900473ffffffffffffffffffffffffffffffffffffffff1673ffffffffffffffffffffffffffffffffffffffff163373ffffffffffffffffffffffffffffffffffffffff161461017d576040517f08c379a000000000000000000000000000000000000000000000000000000000815260040161017490610455565b60405180910390fd5b60008190508073ffffffffffffffffffffffffffffffffffffffff1663fdacd5766001546040518263ffffffff1660e01b81526004016101bd91906102a4565b600060405180830381600087803b1580156101d757600080fd5b505af11580156101eb573d6000803e3d6000fd5b505050505050565b60008054906101000a900473ffffffffffffffffffffffffffffffffffffffff1673ffffffffffffffffffffffffffffffffffffffff163373ffffffffffffffffffffffffffffffffffffffff1614610281576040517f08c379a000000000000000000000000000000000000000000000000000000000815260040161027890610455565b60405180910390fd5b8060018190555050565b6000819050919050565b61029e8161028b565b82525050565b60006020820190506102b96000830184610295565b92915050565b600073ffffffffffffffffffffffffffffffffffffffff82169050919050565b60006102ea826102bf565b9050919050565b6102fa816102df565b82525050565b600060208201905061031560008301846102f1565b92915050565b600080fd5b610329816102df565b811461033457600080fd5b50565b60008135905061034681610320565b92915050565b6000602082840312156103625761036161031b565b5b600061037084828501610337565b91505092915050565b6103828161028b565b811461038d57600080fd5b50565b60008135905061039f81610379565b92915050565b6000602082840312156103bb576103ba61031b565b5b60006103c984828501610390565b91505092915050565b600082825260208201905092915050565b7f546869732066756e6374696f6e206973207265737472696374656420746f207460008201527f686520636f6e74726163742773206f776e657200000000000000000000000000602082015250565b600061043f6033836103d2565b915061044a826103e3565b604082019050919050565b6000602082019050818103600083015261046e81610432565b905091905056fea2646970667358221220b8cf1cc6b50553cdc0f3d0dbe305625aa10c230b2b6265e79955f2bb78bff43b64736f6c634300080b0033",
  "immutableReferences": {},
  "source": "// SPDX-License-Identifier: MIT\npragma solidity >=0.4.22 <0.9.0;\n\ncontract Migrations {\n  address public owner = msg.sender;\n  uint public last_completed_migration;\n\n  modifier restricted() {\n    require(\n      msg.sender == owner,\n      \"This function is restricted to the contract's owner\"\n    );\n    _;\n  }\n\n  function setCompleted(uint completed) public restricted {\n    last_completed_migration = completed;\n  }\n\n\n  //upgrading the migration\n  function Upgrade(address new_address) public restricted {\n    Migrations upgrade = Migrations(new_address);\n    upgrade.setCompleted(last_completed_migration);\n  }\n\n}\n",
  "sourcePath": "C:\\Users\\Haier\\Documents\\Blockchain\\nft-marketplace-starter-kit\\src\\contracts\\Migrations.sol",
  "compiler": {
    "name": "solc",
    "version": "0.8.11+commit.d7f03943.Emscripten.clang"
  },
  "schemaVersion": "3.4.4",
  "updatedAt": "2022-01-29T22:37:45.511Z",
  "networkType": "ethereum",
  "devdoc": {
    "kind": "dev",
    "methods": {},
    "version": 1
  },
  "userdoc": {
    "kind": "user",
    "methods": {},
    "version": 1
  }
}